{
	"base.sol": {
		"Numbers": {
			"abi": [
				{
					"inputs": [
						{
							"internalType": "uint256",
							"name": "burnTokenCount",
							"type": "uint256"
						}
					],
					"name": "burnSupply",
					"outputs": [],
					"stateMutability": "nonpayable",
					"type": "function"
				},
				{
					"inputs": [],
					"name": "currentYear",
					"outputs": [
						{
							"internalType": "uint256",
							"name": "",
							"type": "uint256"
						}
					],
					"stateMutability": "view",
					"type": "function"
				},
				{
					"inputs": [],
					"name": "getSupply",
					"outputs": [
						{
							"internalType": "uint256",
							"name": "",
							"type": "uint256"
						}
					],
					"stateMutability": "view",
					"type": "function"
				},
				{
					"inputs": [],
					"name": "increment",
					"outputs": [],
					"stateMutability": "nonpayable",
					"type": "function"
				},
				{
					"inputs": [],
					"name": "myFavNumber",
					"outputs": [
						{
							"internalType": "int256",
							"name": "",
							"type": "int256"
						}
					],
					"stateMutability": "view",
					"type": "function"
				},
				{
					"inputs": [
						{
							"internalType": "uint256",
							"name": "_count",
							"type": "uint256"
						}
					],
					"name": "setCounter",
					"outputs": [],
					"stateMutability": "nonpayable",
					"type": "function"
				},
				{
					"inputs": [],
					"name": "supply",
					"outputs": [
						{
							"internalType": "uint256",
							"name": "",
							"type": "uint256"
						}
					],
					"stateMutability": "view",
					"type": "function"
				}
			],
			"devdoc": {
				"kind": "dev",
				"methods": {},
				"version": 1
			},
			"evm": {
				"assembly": "    /* \"base.sol\":543:1051  contract Numbers {... */\n  mstore(0x40, 0x80)\n    /* \"base.sol\":596:600  2026 */\n  0x07ea\n    /* \"base.sol\":567:600  uint256 public currentYear = 2026 */\n  0x00\n  sstore\n    /* \"base.sol\":632:636  -256 */\n  0xffffffffffffffffffffffffffffffffffffffffffffffffffffffffffffff00\n    /* \"base.sol\":607:636  int public myFavNumber = -256 */\n  0x01\n  sstore\n    /* \"base.sol\":667:684  1_000_000_000_000 */\n  0xe8d4a51000\n    /* \"base.sol\":643:684  uint256 public supply = 1_000_000_000_000 */\n  0x02\n  sstore\n    /* \"base.sol\":543:1051  contract Numbers {... */\n  callvalue\n  dup1\n  iszero\n  tag_1\n  jumpi\n  revert(0x00, 0x00)\ntag_1:\n  pop\n  dataSize(sub_0)\n  dup1\n  dataOffset(sub_0)\n  0x00\n  codecopy\n  0x00\n  return\nstop\n\nsub_0: assembly {\n        /* \"base.sol\":543:1051  contract Numbers {... */\n      mstore(0x40, 0x80)\n      callvalue\n      dup1\n      iszero\n      tag_1\n      jumpi\n      revert(0x00, 0x00)\n    tag_1:\n      pop\n      jumpi(tag_2, lt(calldatasize, 0x04))\n      shr(0xe0, calldataload(0x00))\n      dup1\n      0x8bb5d9c3\n      gt\n      tag_10\n      jumpi\n      dup1\n      0x8bb5d9c3\n      eq\n      tag_6\n      jumpi\n      dup1\n      0xd09de08a\n      eq\n      tag_7\n      jumpi\n      dup1\n      0xd595c331\n      eq\n      tag_8\n      jumpi\n      dup1\n      0xdf986725\n      eq\n      tag_9\n      jumpi\n      jump(tag_2)\n    tag_10:\n      dup1\n      0x047fc9aa\n      eq\n      tag_3\n      jumpi\n      dup1\n      0x0b5a006b\n      eq\n      tag_4\n      jumpi\n      dup1\n      0x6c9c2faf\n      eq\n      tag_5\n      jumpi\n    tag_2:\n      revert(0x00, 0x00)\n        /* \"base.sol\":643:684  uint256 public supply = 1_000_000_000_000 */\n    tag_3:\n      tag_11\n      tag_12\n      jump\t// in\n    tag_11:\n      mload(0x40)\n      tag_13\n      swap2\n      swap1\n      tag_14\n      jump\t// in\n    tag_13:\n      mload(0x40)\n      dup1\n      swap2\n      sub\n      swap1\n      return\n        /* \"base.sol\":567:600  uint256 public currentYear = 2026 */\n    tag_4:\n      tag_15\n      tag_16\n      jump\t// in\n    tag_15:\n      mload(0x40)\n      tag_17\n      swap2\n      swap1\n      tag_14\n      jump\t// in\n    tag_17:\n      mload(0x40)\n      dup1\n      swap2\n      sub\n      swap1\n      return\n        /* \"base.sol\":864:943  function getSupply() public view returns(uint) {... */\n    tag_5:\n      tag_18\n      tag_19\n      jump\t// in\n    tag_18:\n      mload(0x40)\n      tag_20\n      swap2\n      swap1\n      tag_14\n      jump\t// in\n    tag_20:\n      mload(0x40)\n      dup1\n      swap2\n      sub\n      swap1\n      return\n        /* \"base.sol\":694:776  function setCounter(uint256 _count) public {... */\n    tag_6:\n      tag_21\n      0x04\n      dup1\n      calldatasize\n      sub\n      dup2\n      add\n      swap1\n      tag_22\n      swap2\n      swap1\n      tag_23\n      jump\t// in\n    tag_22:\n      tag_24\n      jump\t// in\n    tag_21:\n      stop\n        /* \"base.sol\":782:858  function increment() public {... */\n    tag_7:\n      tag_25\n      tag_26\n      jump\t// in\n    tag_25:\n      stop\n        /* \"base.sol\":949:1048  function burnSupply(uint burnTokenCount) public {... */\n    tag_8:\n      tag_27\n      0x04\n      dup1\n      calldatasize\n      sub\n      dup2\n      add\n      swap1\n      tag_28\n      swap2\n      swap1\n      tag_23\n      jump\t// in\n    tag_28:\n      tag_29\n      jump\t// in\n    tag_27:\n      stop\n        /* \"base.sol\":607:636  int public myFavNumber = -256 */\n    tag_9:\n      tag_30\n      tag_31\n      jump\t// in\n    tag_30:\n      mload(0x40)\n      tag_32\n      swap2\n      swap1\n      tag_33\n      jump\t// in\n    tag_32:\n      mload(0x40)\n      dup1\n      swap2\n      sub\n      swap1\n      return\n        /* \"base.sol\":643:684  uint256 public supply = 1_000_000_000_000 */\n    tag_12:\n      sload(0x02)\n      dup2\n      jump\t// out\n        /* \"base.sol\":567:600  uint256 public currentYear = 2026 */\n    tag_16:\n      sload(0x00)\n      dup2\n      jump\t// out\n        /* \"base.sol\":864:943  function getSupply() public view returns(uint) {... */\n    tag_19:\n        /* \"base.sol\":905:909  uint */\n      0x00\n        /* \"base.sol\":929:935  supply */\n      sload(0x02)\n        /* \"base.sol\":922:935  return supply */\n      swap1\n      pop\n        /* \"base.sol\":864:943  function getSupply() public view returns(uint) {... */\n      swap1\n      jump\t// out\n        /* \"base.sol\":694:776  function setCounter(uint256 _count) public {... */\n    tag_24:\n        /* \"base.sol\":762:768  _count */\n      dup1\n        /* \"base.sol\":748:759  currentYear */\n      0x00\n        /* \"base.sol\":748:768  currentYear = _count */\n      dup2\n      swap1\n      sstore\n      pop\n        /* \"base.sol\":694:776  function setCounter(uint256 _count) public {... */\n      pop\n      jump\t// out\n        /* \"base.sol\":782:858  function increment() public {... */\n    tag_26:\n        /* \"base.sol\":849:850  1 */\n      0x01\n        /* \"base.sol\":835:846  currentYear */\n      sload(0x00)\n        /* \"base.sol\":835:850  currentYear + 1 */\n      tag_37\n      swap2\n      swap1\n      tag_38\n      jump\t// in\n    tag_37:\n        /* \"base.sol\":821:832  currentYear */\n      0x00\n        /* \"base.sol\":821:850  currentYear = currentYear + 1 */\n      dup2\n      swap1\n      sstore\n      pop\n        /* \"base.sol\":782:858  function increment() public {... */\n      jump\t// out\n        /* \"base.sol\":949:1048  function burnSupply(uint burnTokenCount) public {... */\n    tag_29:\n        /* \"base.sol\":1026:1040  burnTokenCount */\n      dup1\n        /* \"base.sol\":1017:1023  supply */\n      sload(0x02)\n        /* \"base.sol\":1017:1040  supply - burnTokenCount */\n      tag_40\n      swap2\n      swap1\n      tag_41\n      jump\t// in\n    tag_40:\n        /* \"base.sol\":1008:1014  supply */\n      0x02\n        /* \"base.sol\":1008:1040  supply = supply - burnTokenCount */\n      dup2\n      swap1\n      sstore\n      pop\n        /* \"base.sol\":949:1048  function burnSupply(uint burnTokenCount) public {... */\n      pop\n      jump\t// out\n        /* \"base.sol\":607:636  int public myFavNumber = -256 */\n    tag_31:\n      sload(0x01)\n      dup2\n      jump\t// out\n        /* \"#utility.yul\":7:84   */\n    tag_42:\n        /* \"#utility.yul\":44:51   */\n      0x00\n        /* \"#utility.yul\":73:78   */\n      dup2\n        /* \"#utility.yul\":62:78   */\n      swap1\n      pop\n        /* \"#utility.yul\":7:84   */\n      swap2\n      swap1\n      pop\n      jump\t// out\n        /* \"#utility.yul\":90:208   */\n    tag_43:\n        /* \"#utility.yul\":177:201   */\n      tag_55\n        /* \"#utility.yul\":195:200   */\n      dup2\n        /* \"#utility.yul\":177:201   */\n      tag_42\n      jump\t// in\n    tag_55:\n        /* \"#utility.yul\":172:175   */\n      dup3\n        /* \"#utility.yul\":165:202   */\n      mstore\n        /* \"#utility.yul\":90:208   */\n      pop\n      pop\n      jump\t// out\n        /* \"#utility.yul\":214:436   */\n    tag_14:\n        /* \"#utility.yul\":307:311   */\n      0x00\n        /* \"#utility.yul\":345:347   */\n      0x20\n        /* \"#utility.yul\":334:343   */\n      dup3\n        /* \"#utility.yul\":330:348   */\n      add\n        /* \"#utility.yul\":322:348   */\n      swap1\n      pop\n        /* \"#utility.yul\":358:429   */\n      tag_57\n        /* \"#utility.yul\":426:427   */\n      0x00\n        /* \"#utility.yul\":415:424   */\n      dup4\n        /* \"#utility.yul\":411:428   */\n      add\n        /* \"#utility.yul\":402:408   */\n      dup5\n        /* \"#utility.yul\":358:429   */\n      tag_43\n      jump\t// in\n    tag_57:\n        /* \"#utility.yul\":214:436   */\n      swap3\n      swap2\n      pop\n      pop\n      jump\t// out\n        /* \"#utility.yul\":523:640   */\n    tag_45:\n        /* \"#utility.yul\":632:633   */\n      0x00\n        /* \"#utility.yul\":629:630   */\n      0x00\n        /* \"#utility.yul\":622:634   */\n      revert\n        /* \"#utility.yul\":769:891   */\n    tag_47:\n        /* \"#utility.yul\":842:866   */\n      tag_62\n        /* \"#utility.yul\":860:865   */\n      dup2\n        /* \"#utility.yul\":842:866   */\n      tag_42\n      jump\t// in\n    tag_62:\n        /* \"#utility.yul\":835:840   */\n      dup2\n        /* \"#utility.yul\":832:867   */\n      eq\n        /* \"#utility.yul\":822:885   */\n      tag_63\n      jumpi\n        /* \"#utility.yul\":881:882   */\n      0x00\n        /* \"#utility.yul\":878:879   */\n      0x00\n        /* \"#utility.yul\":871:883   */\n      revert\n        /* \"#utility.yul\":822:885   */\n    tag_63:\n        /* \"#utility.yul\":769:891   */\n      pop\n      jump\t// out\n        /* \"#utility.yul\":897:1036   */\n    tag_48:\n        /* \"#utility.yul\":943:948   */\n      0x00\n        /* \"#utility.yul\":981:987   */\n      dup2\n        /* \"#utility.yul\":968:988   */\n      calldataload\n        /* \"#utility.yul\":959:988   */\n      swap1\n      pop\n        /* \"#utility.yul\":997:1030   */\n      tag_65\n        /* \"#utility.yul\":1024:1029   */\n      dup2\n        /* \"#utility.yul\":997:1030   */\n      tag_47\n      jump\t// in\n    tag_65:\n        /* \"#utility.yul\":897:1036   */\n      swap3\n      swap2\n      pop\n      pop\n      jump\t// out\n        /* \"#utility.yul\":1042:1371   */\n    tag_23:\n        /* \"#utility.yul\":1101:1107   */\n      0x00\n        /* \"#utility.yul\":1150:1152   */\n      0x20\n        /* \"#utility.yul\":1138:1147   */\n      dup3\n        /* \"#utility.yul\":1129:1136   */\n      dup5\n        /* \"#utility.yul\":1125:1148   */\n      sub\n        /* \"#utility.yul\":1121:1153   */\n      slt\n        /* \"#utility.yul\":1118:1237   */\n      iszero\n      tag_67\n      jumpi\n        /* \"#utility.yul\":1156:1235   */\n      tag_68\n      tag_45\n      jump\t// in\n    tag_68:\n        /* \"#utility.yul\":1118:1237   */\n    tag_67:\n        /* \"#utility.yul\":1276:1277   */\n      0x00\n        /* \"#utility.yul\":1301:1354   */\n      tag_69\n        /* \"#utility.yul\":1346:1353   */\n      dup5\n        /* \"#utility.yul\":1337:1343   */\n      dup3\n        /* \"#utility.yul\":1326:1335   */\n      dup6\n        /* \"#utility.yul\":1322:1344   */\n      add\n        /* \"#utility.yul\":1301:1354   */\n      tag_48\n      jump\t// in\n    tag_69:\n        /* \"#utility.yul\":1291:1354   */\n      swap2\n      pop\n        /* \"#utility.yul\":1247:1364   */\n      pop\n        /* \"#utility.yul\":1042:1371   */\n      swap3\n      swap2\n      pop\n      pop\n      jump\t// out\n        /* \"#utility.yul\":1377:1453   */\n    tag_49:\n        /* \"#utility.yul\":1413:1420   */\n      0x00\n        /* \"#utility.yul\":1442:1447   */\n      dup2\n        /* \"#utility.yul\":1431:1447   */\n      swap1\n      pop\n        /* \"#utility.yul\":1377:1453   */\n      swap2\n      swap1\n      pop\n      jump\t// out\n        /* \"#utility.yul\":1459:1574   */\n    tag_50:\n        /* \"#utility.yul\":1544:1567   */\n      tag_72\n        /* \"#utility.yul\":1561:1566   */\n      dup2\n        /* \"#utility.yul\":1544:1567   */\n      tag_49\n      jump\t// in\n    tag_72:\n        /* \"#utility.yul\":1539:1542   */\n      dup3\n        /* \"#utility.yul\":1532:1568   */\n      mstore\n        /* \"#utility.yul\":1459:1574   */\n      pop\n      pop\n      jump\t// out\n        /* \"#utility.yul\":1580:1798   */\n    tag_33:\n        /* \"#utility.yul\":1671:1675   */\n      0x00\n        /* \"#utility.yul\":1709:1711   */\n      0x20\n        /* \"#utility.yul\":1698:1707   */\n      dup3\n        /* \"#utility.yul\":1694:1712   */\n      add\n        /* \"#utility.yul\":1686:1712   */\n      swap1\n      pop\n        /* \"#utility.yul\":1722:1791   */\n      tag_74\n        /* \"#utility.yul\":1788:1789   */\n      0x00\n        /* \"#utility.yul\":1777:1786   */\n      dup4\n        /* \"#utility.yul\":1773:1790   */\n      add\n        /* \"#utility.yul\":1764:1770   */\n      dup5\n        /* \"#utility.yul\":1722:1791   */\n      tag_50\n      jump\t// in\n    tag_74:\n        /* \"#utility.yul\":1580:1798   */\n      swap3\n      swap2\n      pop\n      pop\n      jump\t// out\n        /* \"#utility.yul\":1804:1984   */\n    tag_51:\n        /* \"#utility.yul\":1852:1929   */\n      0x4e487b7100000000000000000000000000000000000000000000000000000000\n        /* \"#utility.yul\":1849:1850   */\n      0x00\n        /* \"#utility.yul\":1842:1930   */\n      mstore\n        /* \"#utility.yul\":1949:1953   */\n      0x11\n        /* \"#utility.yul\":1946:1947   */\n      0x04\n        /* \"#utility.yul\":1939:1954   */\n      mstore\n        /* \"#utility.yul\":1973:1977   */\n      0x24\n        /* \"#utility.yul\":1970:1971   */\n      0x00\n        /* \"#utility.yul\":1963:1978   */\n      revert\n        /* \"#utility.yul\":1990:2181   */\n    tag_38:\n        /* \"#utility.yul\":2030:2033   */\n      0x00\n        /* \"#utility.yul\":2049:2069   */\n      tag_77\n        /* \"#utility.yul\":2067:2068   */\n      dup3\n        /* \"#utility.yul\":2049:2069   */\n      tag_42\n      jump\t// in\n    tag_77:\n        /* \"#utility.yul\":2044:2069   */\n      swap2\n      pop\n        /* \"#utility.yul\":2083:2103   */\n      tag_78\n        /* \"#utility.yul\":2101:2102   */\n      dup4\n        /* \"#utility.yul\":2083:2103   */\n      tag_42\n      jump\t// in\n    tag_78:\n        /* \"#utility.yul\":2078:2103   */\n      swap3\n      pop\n        /* \"#utility.yul\":2126:2127   */\n      dup3\n        /* \"#utility.yul\":2123:2124   */\n      dup3\n        /* \"#utility.yul\":2119:2128   */\n      add\n        /* \"#utility.yul\":2112:2128   */\n      swap1\n      pop\n        /* \"#utility.yul\":2147:2150   */\n      dup1\n        /* \"#utility.yul\":2144:2145   */\n      dup3\n        /* \"#utility.yul\":2141:2151   */\n      gt\n        /* \"#utility.yul\":2138:2174   */\n      iszero\n      tag_79\n      jumpi\n        /* \"#utility.yul\":2154:2172   */\n      tag_80\n      tag_51\n      jump\t// in\n    tag_80:\n        /* \"#utility.yul\":2138:2174   */\n    tag_79:\n        /* \"#utility.yul\":1990:2181   */\n      swap3\n      swap2\n      pop\n      pop\n      jump\t// out\n        /* \"#utility.yul\":2187:2381   */\n    tag_41:\n        /* \"#utility.yul\":2227:2231   */\n      0x00\n        /* \"#utility.yul\":2247:2267   */\n      tag_82\n        /* \"#utility.yul\":2265:2266   */\n      dup3\n        /* \"#utility.yul\":2247:2267   */\n      tag_42\n      jump\t// in\n    tag_82:\n        /* \"#utility.yul\":2242:2267   */\n      swap2\n      pop\n        /* \"#utility.yul\":2281:2301   */\n      tag_83\n        /* \"#utility.yul\":2299:2300   */\n      dup4\n        /* \"#utility.yul\":2281:2301   */\n      tag_42\n      jump\t// in\n    tag_83:\n        /* \"#utility.yul\":2276:2301   */\n      swap3\n      pop\n        /* \"#utility.yul\":2325:2326   */\n      dup3\n        /* \"#utility.yul\":2322:2323   */\n      dup3\n        /* \"#utility.yul\":2318:2327   */\n      sub\n        /* \"#utility.yul\":2310:2327   */\n      swap1\n      pop\n        /* \"#utility.yul\":2349:2350   */\n      dup2\n        /* \"#utility.yul\":2343:2347   */\n      dup2\n        /* \"#utility.yul\":2340:2351   */\n      gt\n        /* \"#utility.yul\":2337:2374   */\n      iszero\n      tag_84\n      jumpi\n        /* \"#utility.yul\":2354:2372   */\n      tag_85\n      tag_51\n      jump\t// in\n    tag_85:\n        /* \"#utility.yul\":2337:2374   */\n    tag_84:\n        /* \"#utility.yul\":2187:2381   */\n      swap3\n      swap2\n      pop\n      pop\n      jump\t// out\n\n    auxdata: 0xa264697066735822122075c1b858d35b5c58b6c0ca3fab2c8805cd376dc88800ae2c7901b469ee728c4064736f6c634300081f0033\n}\n",
				"bytecode": {
					"linkReferences": {},
					"object": "60806040526107ea5f557fffffffffffffffffffffffffffffffffffffffffffffffffffffffffffffff0060015564e8d4a510006002553480156040575f5ffd5b5061030c8061004e5f395ff3fe608060405234801561000f575f5ffd5b506004361061007b575f3560e01c80638bb5d9c3116100595780638bb5d9c3146100d9578063d09de08a146100f5578063d595c331146100ff578063df9867251461011b5761007b565b8063047fc9aa1461007f5780630b5a006b1461009d5780636c9c2faf146100bb575b5f5ffd5b610087610139565b60405161009491906101a0565b60405180910390f35b6100a561013f565b6040516100b291906101a0565b60405180910390f35b6100c3610144565b6040516100d091906101a0565b60405180910390f35b6100f360048036038101906100ee91906101e7565b61014d565b005b6100fd610156565b005b610119600480360381019061011491906101e7565b61016b565b005b610123610182565b604051610130919061022a565b60405180910390f35b60025481565b5f5481565b5f600254905090565b805f8190555050565b60015f546101649190610270565b5f81905550565b8060025461017991906102a3565b60028190555050565b60015481565b5f819050919050565b61019a81610188565b82525050565b5f6020820190506101b35f830184610191565b92915050565b5f5ffd5b6101c681610188565b81146101d0575f5ffd5b50565b5f813590506101e1816101bd565b92915050565b5f602082840312156101fc576101fb6101b9565b5b5f610209848285016101d3565b91505092915050565b5f819050919050565b61022481610212565b82525050565b5f60208201905061023d5f83018461021b565b92915050565b7f4e487b71000000000000000000000000000000000000000000000000000000005f52601160045260245ffd5b5f61027a82610188565b915061028583610188565b925082820190508082111561029d5761029c610243565b5b92915050565b5f6102ad82610188565b91506102b883610188565b92508282039050818111156102d0576102cf610243565b5b9291505056fea264697066735822122075c1b858d35b5c58b6c0ca3fab2c8805cd376dc88800ae2c7901b469ee728c4064736f6c634300081f0033",
					"opcodes": "PUSH1 0x80 PUSH1 0x40 MSTORE PUSH2 0x7EA PUSH0 SSTORE PUSH32 0xFFFFFFFFFFFFFFFFFFFFFFFFFFFFFFFFFFFFFFFFFFFFFFFFFFFFFFFFFFFFFF00 PUSH1 0x1 SSTORE PUSH5 0xE8D4A51000 PUSH1 0x2 SSTORE CALLVALUE DUP1 ISZERO PUSH1 0x40 JUMPI PUSH0 PUSH0 REVERT JUMPDEST POP PUSH2 0x30C DUP1 PUSH2 0x4E PUSH0 CODECOPY PUSH0 RETURN INVALID PUSH1 0x80 PUSH1 0x40 MSTORE CALLVALUE DUP1 ISZERO PUSH2 0xF JUMPI PUSH0 PUSH0 REVERT JUMPDEST POP PUSH1 0x4 CALLDATASIZE LT PUSH2 0x7B JUMPI PUSH0 CALLDATALOAD PUSH1 0xE0 SHR DUP1 PUSH4 0x8BB5D9C3 GT PUSH2 0x59 JUMPI DUP1 PUSH4 0x8BB5D9C3 EQ PUSH2 0xD9 JUMPI DUP1 PUSH4 0xD09DE08A EQ PUSH2 0xF5 JUMPI DUP1 PUSH4 0xD595C331 EQ PUSH2 0xFF JUMPI DUP1 PUSH4 0xDF986725 EQ PUSH2 0x11B JUMPI PUSH2 0x7B JUMP JUMPDEST DUP1 PUSH4 0x47FC9AA EQ PUSH2 0x7F JUMPI DUP1 PUSH4 0xB5A006B EQ PUSH2 0x9D JUMPI DUP1 PUSH4 0x6C9C2FAF EQ PUSH2 0xBB JUMPI JUMPDEST PUSH0 PUSH0 REVERT JUMPDEST PUSH2 0x87 PUSH2 0x139 JUMP JUMPDEST PUSH1 0x40 MLOAD PUSH2 0x94 SWAP2 SWAP1 PUSH2 0x1A0 JUMP JUMPDEST PUSH1 0x40 MLOAD DUP1 SWAP2 SUB SWAP1 RETURN JUMPDEST PUSH2 0xA5 PUSH2 0x13F JUMP JUMPDEST PUSH1 0x40 MLOAD PUSH2 0xB2 SWAP2 SWAP1 PUSH2 0x1A0 JUMP JUMPDEST PUSH1 0x40 MLOAD DUP1 SWAP2 SUB SWAP1 RETURN JUMPDEST PUSH2 0xC3 PUSH2 0x144 JUMP JUMPDEST PUSH1 0x40 MLOAD PUSH2 0xD0 SWAP2 SWAP1 PUSH2 0x1A0 JUMP JUMPDEST PUSH1 0x40 MLOAD DUP1 SWAP2 SUB SWAP1 RETURN JUMPDEST PUSH2 0xF3 PUSH1 0x4 DUP1 CALLDATASIZE SUB DUP2 ADD SWAP1 PUSH2 0xEE SWAP2 SWAP1 PUSH2 0x1E7 JUMP JUMPDEST PUSH2 0x14D JUMP JUMPDEST STOP JUMPDEST PUSH2 0xFD PUSH2 0x156 JUMP JUMPDEST STOP JUMPDEST PUSH2 0x119 PUSH1 0x4 DUP1 CALLDATASIZE SUB DUP2 ADD SWAP1 PUSH2 0x114 SWAP2 SWAP1 PUSH2 0x1E7 JUMP JUMPDEST PUSH2 0x16B JUMP JUMPDEST STOP JUMPDEST PUSH2 0x123 PUSH2 0x182 JUMP JUMPDEST PUSH1 0x40 MLOAD PUSH2 0x130 SWAP2 SWAP1 PUSH2 0x22A JUMP JUMPDEST PUSH1 0x40 MLOAD DUP1 SWAP2 SUB SWAP1 RETURN JUMPDEST PUSH1 0x2 SLOAD DUP2 JUMP JUMPDEST PUSH0 SLOAD DUP2 JUMP JUMPDEST PUSH0 PUSH1 0x2 SLOAD SWAP1 POP SWAP1 JUMP JUMPDEST DUP1 PUSH0 DUP2 SWAP1 SSTORE POP POP JUMP JUMPDEST PUSH1 0x1 PUSH0 SLOAD PUSH2 0x164 SWAP2 SWAP1 PUSH2 0x270 JUMP JUMPDEST PUSH0 DUP2 SWAP1 SSTORE POP JUMP JUMPDEST DUP1 PUSH1 0x2 SLOAD PUSH2 0x179 SWAP2 SWAP1 PUSH2 0x2A3 JUMP JUMPDEST PUSH1 0x2 DUP2 SWAP1 SSTORE POP POP JUMP JUMPDEST PUSH1 0x1 SLOAD DUP2 JUMP JUMPDEST PUSH0 DUP2 SWAP1 POP SWAP2 SWAP1 POP JUMP JUMPDEST PUSH2 0x19A DUP2 PUSH2 0x188 JUMP JUMPDEST DUP3 MSTORE POP POP JUMP JUMPDEST PUSH0 PUSH1 0x20 DUP3 ADD SWAP1 POP PUSH2 0x1B3 PUSH0 DUP4 ADD DUP5 PUSH2 0x191 JUMP JUMPDEST SWAP3 SWAP2 POP POP JUMP JUMPDEST PUSH0 PUSH0 REVERT JUMPDEST PUSH2 0x1C6 DUP2 PUSH2 0x188 JUMP JUMPDEST DUP2 EQ PUSH2 0x1D0 JUMPI PUSH0 PUSH0 REVERT JUMPDEST POP JUMP JUMPDEST PUSH0 DUP2 CALLDATALOAD SWAP1 POP PUSH2 0x1E1 DUP2 PUSH2 0x1BD JUMP JUMPDEST SWAP3 SWAP2 POP POP JUMP JUMPDEST PUSH0 PUSH1 0x20 DUP3 DUP5 SUB SLT ISZERO PUSH2 0x1FC JUMPI PUSH2 0x1FB PUSH2 0x1B9 JUMP JUMPDEST JUMPDEST PUSH0 PUSH2 0x209 DUP5 DUP3 DUP6 ADD PUSH2 0x1D3 JUMP JUMPDEST SWAP2 POP POP SWAP3 SWAP2 POP POP JUMP JUMPDEST PUSH0 DUP2 SWAP1 POP SWAP2 SWAP1 POP JUMP JUMPDEST PUSH2 0x224 DUP2 PUSH2 0x212 JUMP JUMPDEST DUP3 MSTORE POP POP JUMP JUMPDEST PUSH0 PUSH1 0x20 DUP3 ADD SWAP1 POP PUSH2 0x23D PUSH0 DUP4 ADD DUP5 PUSH2 0x21B JUMP JUMPDEST SWAP3 SWAP2 POP POP JUMP JUMPDEST PUSH32 0x4E487B7100000000000000000000000000000000000000000000000000000000 PUSH0 MSTORE PUSH1 0x11 PUSH1 0x4 MSTORE PUSH1 0x24 PUSH0 REVERT JUMPDEST PUSH0 PUSH2 0x27A DUP3 PUSH2 0x188 JUMP JUMPDEST SWAP2 POP PUSH2 0x285 DUP4 PUSH2 0x188 JUMP JUMPDEST SWAP3 POP DUP3 DUP3 ADD SWAP1 POP DUP1 DUP3 GT ISZERO PUSH2 0x29D JUMPI PUSH2 0x29C PUSH2 0x243 JUMP JUMPDEST JUMPDEST SWAP3 SWAP2 POP POP JUMP JUMPDEST PUSH0 PUSH2 0x2AD DUP3 PUSH2 0x188 JUMP JUMPDEST SWAP2 POP PUSH2 0x2B8 DUP4 PUSH2 0x188 JUMP JUMPDEST SWAP3 POP DUP3 DUP3 SUB SWAP1 POP DUP2 DUP2 GT ISZERO PUSH2 0x2D0 JUMPI PUSH2 0x2CF PUSH2 0x243 JUMP JUMPDEST JUMPDEST SWAP3 SWAP2 POP POP JUMP INVALID LOG2 PUSH5 0x6970667358 0x22 SLT KECCAK256 PUSH22 0xC1B858D35B5C58B6C0CA3FAB2C8805CD376DC88800AE 0x2C PUSH26 0x1B469EE728C4064736F6C634300081F00330000000000000000 "
				},
				"gasEstimates": {
					"creation": {
						"codeDepositCost": "156000",
						"executionCost": "66517",
						"totalCost": "222517"
					},
					"external": {
						"burnSupply(uint256)": "infinite",
						"currentYear()": "2447",
						"getSupply()": "2477",
						"increment()": "infinite",
						"myFavNumber()": "2491",
						"setCounter(uint256)": "22514",
						"supply()": "2426"
					}
				},
				"methodIdentifiers": {
					"burnSupply(uint256)": "d595c331",
					"currentYear()": "0b5a006b",
					"getSupply()": "6c9c2faf",
					"increment()": "d09de08a",
					"myFavNumber()": "df986725",
					"setCounter(uint256)": "8bb5d9c3",
					"supply()": "047fc9aa"
				}
			},
			"storageLayout": {
				"storage": [
					{
						"astId": 48,
						"contract": "base.sol:Numbers",
						"label": "currentYear",
						"offset": 0,
						"slot": "0",
						"type": "t_uint256"
					},
					{
						"astId": 52,
						"contract": "base.sol:Numbers",
						"label": "myFavNumber",
						"offset": 0,
						"slot": "1",
						"type": "t_int256"
					},
					{
						"astId": 55,
						"contract": "base.sol:Numbers",
						"label": "supply",
						"offset": 0,
						"slot": "2",
						"type": "t_uint256"
					}
				],
				"types": {
					"t_int256": {
						"encoding": "inplace",
						"label": "int256",
						"numberOfBytes": "32"
					},
					"t_uint256": {
						"encoding": "inplace",
						"label": "uint256",
						"numberOfBytes": "32"
					}
				}
			},
			"userdoc": {
				"kind": "user",
				"methods": {},
				"version": 1
			}
		}
	}
}