{
	"base.sol": {
		"Strings": {
			"abi": [
				{
					"inputs": [],
					"name": "getFullName",
					"outputs": [
						{
							"internalType": "string",
							"name": "",
							"type": "string"
						}
					],
					"stateMutability": "view",
					"type": "function"
				},
				{
					"inputs": [],
					"name": "getGreetings",
					"outputs": [
						{
							"internalType": "string",
							"name": "",
							"type": "string"
						}
					],
					"stateMutability": "view",
					"type": "function"
				},
				{
					"inputs": [],
					"name": "greetings",
					"outputs": [
						{
							"internalType": "string",
							"name": "",
							"type": "string"
						}
					],
					"stateMutability": "view",
					"type": "function"
				},
				{
					"inputs": [],
					"name": "name",
					"outputs": [
						{
							"internalType": "string",
							"name": "",
							"type": "string"
						}
					],
					"stateMutability": "view",
					"type": "function"
				},
				{
					"inputs": [
						{
							"internalType": "string",
							"name": "message",
							"type": "string"
						}
					],
					"name": "setGreetings",
					"outputs": [],
					"stateMutability": "nonpayable",
					"type": "function"
				},
				{
					"inputs": [],
					"name": "surname",
					"outputs": [
						{
							"internalType": "string",
							"name": "",
							"type": "string"
						}
					],
					"stateMutability": "view",
					"type": "function"
				}
			],
			"devdoc": {
				"kind": "dev",
				"methods": {},
				"version": 1
			},
			"evm": {
				"assembly": "    /* \"base.sol\":60:539  contract Strings {... */\n  mstore(0x40, 0x80)\n    /* \"base.sol\":84:125  string public greetings = \"Hello, World!\" */\n  mload(0x40)\n  dup1\n  0x40\n  add\n  0x40\n  mstore\n  dup1\n  0x0d\n  dup2\n  mstore\n  0x20\n  add\n  0x48656c6c6f2c20576f726c642100000000000000000000000000000000000000\n  dup2\n  mstore\n  pop\n  0x00\n  swap1\n  dup2\n  tag_1\n  swap2\n  swap1\n  tag_2\n  jump\t// in\ntag_1:\n  pop\n    /* \"base.sol\":132:159  string public name = \"John\" */\n  mload(0x40)\n  dup1\n  0x40\n  add\n  0x40\n  mstore\n  dup1\n  0x04\n  dup2\n  mstore\n  0x20\n  add\n  0x4a6f686e00000000000000000000000000000000000000000000000000000000\n  dup2\n  mstore\n  pop\n  0x01\n  swap1\n  dup2\n  tag_3\n  swap2\n  swap1\n  tag_2\n  jump\t// in\ntag_3:\n  pop\n    /* \"base.sol\":166:195  string public surname = \"Doe\" */\n  mload(0x40)\n  dup1\n  0x40\n  add\n  0x40\n  mstore\n  dup1\n  0x03\n  dup2\n  mstore\n  0x20\n  add\n  0x446f650000000000000000000000000000000000000000000000000000000000\n  dup2\n  mstore\n  pop\n  0x02\n  swap1\n  dup2\n  tag_4\n  swap2\n  swap1\n  tag_2\n  jump\t// in\ntag_4:\n  pop\n    /* \"base.sol\":60:539  contract Strings {... */\n  callvalue\n  dup1\n  iszero\n  tag_5\n  jumpi\n  revert(0x00, 0x00)\ntag_5:\n  pop\n  jump(tag_6)\n    /* \"#utility.yul\":7:106   */\ntag_7:\n    /* \"#utility.yul\":59:65   */\n  0x00\n    /* \"#utility.yul\":93:98   */\n  dup2\n    /* \"#utility.yul\":87:99   */\n  mload\n    /* \"#utility.yul\":77:99   */\n  swap1\n  pop\n    /* \"#utility.yul\":7:106   */\n  swap2\n  swap1\n  pop\n  jump\t// out\n    /* \"#utility.yul\":112:292   */\ntag_8:\n    /* \"#utility.yul\":160:237   */\n  0x4e487b7100000000000000000000000000000000000000000000000000000000\n    /* \"#utility.yul\":157:158   */\n  0x00\n    /* \"#utility.yul\":150:238   */\n  mstore\n    /* \"#utility.yul\":257:261   */\n  0x41\n    /* \"#utility.yul\":254:255   */\n  0x04\n    /* \"#utility.yul\":247:262   */\n  mstore\n    /* \"#utility.yul\":281:285   */\n  0x24\n    /* \"#utility.yul\":278:279   */\n  0x00\n    /* \"#utility.yul\":271:286   */\n  revert\n    /* \"#utility.yul\":298:478   */\ntag_9:\n    /* \"#utility.yul\":346:423   */\n  0x4e487b7100000000000000000000000000000000000000000000000000000000\n    /* \"#utility.yul\":343:344   */\n  0x00\n    /* \"#utility.yul\":336:424   */\n  mstore\n    /* \"#utility.yul\":443:447   */\n  0x22\n    /* \"#utility.yul\":440:441   */\n  0x04\n    /* \"#utility.yul\":433:448   */\n  mstore\n    /* \"#utility.yul\":467:471   */\n  0x24\n    /* \"#utility.yul\":464:465   */\n  0x00\n    /* \"#utility.yul\":457:472   */\n  revert\n    /* \"#utility.yul\":484:804   */\ntag_10:\n    /* \"#utility.yul\":528:534   */\n  0x00\n    /* \"#utility.yul\":565:566   */\n  0x02\n    /* \"#utility.yul\":559:563   */\n  dup3\n    /* \"#utility.yul\":555:567   */\n  div\n    /* \"#utility.yul\":545:567   */\n  swap1\n  pop\n    /* \"#utility.yul\":612:613   */\n  0x01\n    /* \"#utility.yul\":606:610   */\n  dup3\n    /* \"#utility.yul\":602:614   */\n  and\n    /* \"#utility.yul\":633:651   */\n  dup1\n    /* \"#utility.yul\":623:704   */\n  tag_32\n  jumpi\n    /* \"#utility.yul\":689:693   */\n  0x7f\n    /* \"#utility.yul\":681:687   */\n  dup3\n    /* \"#utility.yul\":677:694   */\n  and\n    /* \"#utility.yul\":667:694   */\n  swap2\n  pop\n    /* \"#utility.yul\":623:704   */\ntag_32:\n    /* \"#utility.yul\":751:753   */\n  0x20\n    /* \"#utility.yul\":743:749   */\n  dup3\n    /* \"#utility.yul\":740:754   */\n  lt\n    /* \"#utility.yul\":720:738   */\n  dup2\n    /* \"#utility.yul\":717:755   */\n  sub\n    /* \"#utility.yul\":714:798   */\n  tag_33\n  jumpi\n    /* \"#utility.yul\":770:788   */\n  tag_34\n  tag_9\n  jump\t// in\ntag_34:\n    /* \"#utility.yul\":714:798   */\ntag_33:\n    /* \"#utility.yul\":535:804   */\n  pop\n    /* \"#utility.yul\":484:804   */\n  swap2\n  swap1\n  pop\n  jump\t// out\n    /* \"#utility.yul\":810:951   */\ntag_11:\n    /* \"#utility.yul\":859:863   */\n  0x00\n    /* \"#utility.yul\":882:885   */\n  dup2\n    /* \"#utility.yul\":874:885   */\n  swap1\n  pop\n    /* \"#utility.yul\":905:908   */\n  dup2\n    /* \"#utility.yul\":902:903   */\n  0x00\n    /* \"#utility.yul\":895:909   */\n  mstore\n    /* \"#utility.yul\":939:943   */\n  0x20\n    /* \"#utility.yul\":936:937   */\n  0x00\n    /* \"#utility.yul\":926:944   */\n  keccak256\n    /* \"#utility.yul\":918:944   */\n  swap1\n  pop\n    /* \"#utility.yul\":810:951   */\n  swap2\n  swap1\n  pop\n  jump\t// out\n    /* \"#utility.yul\":957:1050   */\ntag_12:\n    /* \"#utility.yul\":994:1000   */\n  0x00\n    /* \"#utility.yul\":1041:1043   */\n  0x20\n    /* \"#utility.yul\":1036:1038   */\n  0x1f\n    /* \"#utility.yul\":1029:1034   */\n  dup4\n    /* \"#utility.yul\":1025:1039   */\n  add\n    /* \"#utility.yul\":1021:1044   */\n  div\n    /* \"#utility.yul\":1011:1044   */\n  swap1\n  pop\n    /* \"#utility.yul\":957:1050   */\n  swap2\n  swap1\n  pop\n  jump\t// out\n    /* \"#utility.yul\":1056:1163   */\ntag_13:\n    /* \"#utility.yul\":1100:1108   */\n  0x00\n    /* \"#utility.yul\":1150:1155   */\n  dup3\n    /* \"#utility.yul\":1144:1148   */\n  dup3\n    /* \"#utility.yul\":1140:1156   */\n  shl\n    /* \"#utility.yul\":1119:1156   */\n  swap1\n  pop\n    /* \"#utility.yul\":1056:1163   */\n  swap3\n  swap2\n  pop\n  pop\n  jump\t// out\n    /* \"#utility.yul\":1169:1562   */\ntag_14:\n    /* \"#utility.yul\":1238:1244   */\n  0x00\n    /* \"#utility.yul\":1288:1289   */\n  0x08\n    /* \"#utility.yul\":1276:1286   */\n  dup4\n    /* \"#utility.yul\":1272:1290   */\n  mul\n    /* \"#utility.yul\":1311:1408   */\n  tag_39\n    /* \"#utility.yul\":1341:1407   */\n  0xffffffffffffffffffffffffffffffffffffffffffffffffffffffffffffffff\n    /* \"#utility.yul\":1330:1339   */\n  dup3\n    /* \"#utility.yul\":1311:1408   */\n  tag_13\n  jump\t// in\ntag_39:\n    /* \"#utility.yul\":1429:1468   */\n  tag_40\n    /* \"#utility.yul\":1459:1467   */\n  dup7\n    /* \"#utility.yul\":1448:1457   */\n  dup4\n    /* \"#utility.yul\":1429:1468   */\n  tag_13\n  jump\t// in\ntag_40:\n    /* \"#utility.yul\":1417:1468   */\n  swap6\n  pop\n    /* \"#utility.yul\":1501:1505   */\n  dup1\n    /* \"#utility.yul\":1497:1506   */\n  not\n    /* \"#utility.yul\":1490:1495   */\n  dup5\n    /* \"#utility.yul\":1486:1507   */\n  and\n    /* \"#utility.yul\":1477:1507   */\n  swap4\n  pop\n    /* \"#utility.yul\":1550:1554   */\n  dup1\n    /* \"#utility.yul\":1540:1548   */\n  dup7\n    /* \"#utility.yul\":1536:1555   */\n  and\n    /* \"#utility.yul\":1529:1534   */\n  dup5\n    /* \"#utility.yul\":1526:1556   */\n  or\n    /* \"#utility.yul\":1516:1556   */\n  swap3\n  pop\n    /* \"#utility.yul\":1245:1562   */\n  pop\n  pop\n    /* \"#utility.yul\":1169:1562   */\n  swap4\n  swap3\n  pop\n  pop\n  pop\n  jump\t// out\n    /* \"#utility.yul\":1568:1645   */\ntag_15:\n    /* \"#utility.yul\":1605:1612   */\n  0x00\n    /* \"#utility.yul\":1634:1639   */\n  dup2\n    /* \"#utility.yul\":1623:1639   */\n  swap1\n  pop\n    /* \"#utility.yul\":1568:1645   */\n  swap2\n  swap1\n  pop\n  jump\t// out\n    /* \"#utility.yul\":1651:1711   */\ntag_16:\n    /* \"#utility.yul\":1679:1682   */\n  0x00\n    /* \"#utility.yul\":1700:1705   */\n  dup2\n    /* \"#utility.yul\":1693:1705   */\n  swap1\n  pop\n    /* \"#utility.yul\":1651:1711   */\n  swap2\n  swap1\n  pop\n  jump\t// out\n    /* \"#utility.yul\":1717:1859   */\ntag_17:\n    /* \"#utility.yul\":1767:1776   */\n  0x00\n    /* \"#utility.yul\":1800:1853   */\n  tag_44\n    /* \"#utility.yul\":1818:1852   */\n  tag_45\n    /* \"#utility.yul\":1827:1851   */\n  tag_46\n    /* \"#utility.yul\":1845:1850   */\n  dup5\n    /* \"#utility.yul\":1827:1851   */\n  tag_15\n  jump\t// in\ntag_46:\n    /* \"#utility.yul\":1818:1852   */\n  tag_16\n  jump\t// in\ntag_45:\n    /* \"#utility.yul\":1800:1853   */\n  tag_15\n  jump\t// in\ntag_44:\n    /* \"#utility.yul\":1787:1853   */\n  swap1\n  pop\n    /* \"#utility.yul\":1717:1859   */\n  swap2\n  swap1\n  pop\n  jump\t// out\n    /* \"#utility.yul\":1865:1940   */\ntag_18:\n    /* \"#utility.yul\":1908:1911   */\n  0x00\n    /* \"#utility.yul\":1929:1934   */\n  dup2\n    /* \"#utility.yul\":1922:1934   */\n  swap1\n  pop\n    /* \"#utility.yul\":1865:1940   */\n  swap2\n  swap1\n  pop\n  jump\t// out\n    /* \"#utility.yul\":1946:2215   */\ntag_19:\n    /* \"#utility.yul\":2056:2095   */\n  tag_49\n    /* \"#utility.yul\":2087:2094   */\n  dup4\n    /* \"#utility.yul\":2056:2095   */\n  tag_17\n  jump\t// in\ntag_49:\n    /* \"#utility.yul\":2117:2208   */\n  tag_50\n    /* \"#utility.yul\":2166:2207   */\n  tag_51\n    /* \"#utility.yul\":2190:2206   */\n  dup3\n    /* \"#utility.yul\":2166:2207   */\n  tag_18\n  jump\t// in\ntag_51:\n    /* \"#utility.yul\":2158:2164   */\n  dup5\n    /* \"#utility.yul\":2151:2155   */\n  dup5\n    /* \"#utility.yul\":2145:2156   */\n  sload\n    /* \"#utility.yul\":2117:2208   */\n  tag_14\n  jump\t// in\ntag_50:\n    /* \"#utility.yul\":2111:2115   */\n  dup3\n    /* \"#utility.yul\":2104:2209   */\n  sstore\n    /* \"#utility.yul\":2022:2215   */\n  pop\n    /* \"#utility.yul\":1946:2215   */\n  pop\n  pop\n  pop\n  jump\t// out\n    /* \"#utility.yul\":2221:2294   */\ntag_20:\n    /* \"#utility.yul\":2266:2269   */\n  0x00\n    /* \"#utility.yul\":2287:2288   */\n  0x00\n    /* \"#utility.yul\":2280:2288   */\n  swap1\n  pop\n    /* \"#utility.yul\":2221:2294   */\n  swap1\n  jump\t// out\n    /* \"#utility.yul\":2300:2489   */\ntag_21:\n    /* \"#utility.yul\":2377:2409   */\n  tag_54\n  tag_20\n  jump\t// in\ntag_54:\n    /* \"#utility.yul\":2418:2483   */\n  tag_55\n    /* \"#utility.yul\":2476:2482   */\n  dup2\n    /* \"#utility.yul\":2468:2474   */\n  dup5\n    /* \"#utility.yul\":2462:2466   */\n  dup5\n    /* \"#utility.yul\":2418:2483   */\n  tag_19\n  jump\t// in\ntag_55:\n    /* \"#utility.yul\":2353:2489   */\n  pop\n    /* \"#utility.yul\":2300:2489   */\n  pop\n  pop\n  jump\t// out\n    /* \"#utility.yul\":2495:2681   */\ntag_22:\n    /* \"#utility.yul\":2555:2675   */\ntag_57:\n    /* \"#utility.yul\":2572:2575   */\n  dup2\n    /* \"#utility.yul\":2565:2570   */\n  dup2\n    /* \"#utility.yul\":2562:2576   */\n  lt\n    /* \"#utility.yul\":2555:2675   */\n  iszero\n  tag_59\n  jumpi\n    /* \"#utility.yul\":2626:2665   */\n  tag_60\n    /* \"#utility.yul\":2663:2664   */\n  0x00\n    /* \"#utility.yul\":2656:2661   */\n  dup3\n    /* \"#utility.yul\":2626:2665   */\n  tag_21\n  jump\t// in\ntag_60:\n    /* \"#utility.yul\":2599:2600   */\n  0x01\n    /* \"#utility.yul\":2592:2597   */\n  dup2\n    /* \"#utility.yul\":2588:2601   */\n  add\n    /* \"#utility.yul\":2579:2601   */\n  swap1\n  pop\n    /* \"#utility.yul\":2555:2675   */\n  jump(tag_57)\ntag_59:\n    /* \"#utility.yul\":2495:2681   */\n  pop\n  pop\n  jump\t// out\n    /* \"#utility.yul\":2687:3230   */\ntag_23:\n    /* \"#utility.yul\":2788:2790   */\n  0x1f\n    /* \"#utility.yul\":2783:2786   */\n  dup3\n    /* \"#utility.yul\":2780:2791   */\n  gt\n    /* \"#utility.yul\":2777:3223   */\n  iszero\n  tag_62\n  jumpi\n    /* \"#utility.yul\":2822:2860   */\n  tag_63\n    /* \"#utility.yul\":2854:2859   */\n  dup2\n    /* \"#utility.yul\":2822:2860   */\n  tag_11\n  jump\t// in\ntag_63:\n    /* \"#utility.yul\":2906:2935   */\n  tag_64\n    /* \"#utility.yul\":2924:2934   */\n  dup5\n    /* \"#utility.yul\":2906:2935   */\n  tag_12\n  jump\t// in\ntag_64:\n    /* \"#utility.yul\":2896:2904   */\n  dup2\n    /* \"#utility.yul\":2892:2936   */\n  add\n    /* \"#utility.yul\":3089:3091   */\n  0x20\n    /* \"#utility.yul\":3077:3087   */\n  dup6\n    /* \"#utility.yul\":3074:3092   */\n  lt\n    /* \"#utility.yul\":3071:3120   */\n  iszero\n  tag_65\n  jumpi\n    /* \"#utility.yul\":3110:3118   */\n  dup2\n    /* \"#utility.yul\":3095:3118   */\n  swap1\n  pop\n    /* \"#utility.yul\":3071:3120   */\ntag_65:\n    /* \"#utility.yul\":3133:3213   */\n  tag_66\n    /* \"#utility.yul\":3189:3211   */\n  tag_67\n    /* \"#utility.yul\":3207:3210   */\n  dup6\n    /* \"#utility.yul\":3189:3211   */\n  tag_12\n  jump\t// in\ntag_67:\n    /* \"#utility.yul\":3179:3187   */\n  dup4\n    /* \"#utility.yul\":3175:3212   */\n  add\n    /* \"#utility.yul\":3162:3173   */\n  dup3\n    /* \"#utility.yul\":3133:3213   */\n  tag_22\n  jump\t// in\ntag_66:\n    /* \"#utility.yul\":2792:3223   */\n  pop\n  pop\n    /* \"#utility.yul\":2777:3223   */\ntag_62:\n    /* \"#utility.yul\":2687:3230   */\n  pop\n  pop\n  pop\n  jump\t// out\n    /* \"#utility.yul\":3236:3353   */\ntag_24:\n    /* \"#utility.yul\":3290:3298   */\n  0x00\n    /* \"#utility.yul\":3340:3345   */\n  dup3\n    /* \"#utility.yul\":3334:3338   */\n  dup3\n    /* \"#utility.yul\":3330:3346   */\n  shr\n    /* \"#utility.yul\":3309:3346   */\n  swap1\n  pop\n    /* \"#utility.yul\":3236:3353   */\n  swap3\n  swap2\n  pop\n  pop\n  jump\t// out\n    /* \"#utility.yul\":3359:3528   */\ntag_25:\n    /* \"#utility.yul\":3403:3409   */\n  0x00\n    /* \"#utility.yul\":3436:3487   */\n  tag_70\n    /* \"#utility.yul\":3484:3485   */\n  0x00\n    /* \"#utility.yul\":3480:3486   */\n  not\n    /* \"#utility.yul\":3472:3477   */\n  dup5\n    /* \"#utility.yul\":3469:3470   */\n  0x08\n    /* \"#utility.yul\":3465:3478   */\n  mul\n    /* \"#utility.yul\":3436:3487   */\n  tag_24\n  jump\t// in\ntag_70:\n    /* \"#utility.yul\":3432:3488   */\n  not\n    /* \"#utility.yul\":3517:3521   */\n  dup1\n    /* \"#utility.yul\":3511:3515   */\n  dup4\n    /* \"#utility.yul\":3507:3522   */\n  and\n    /* \"#utility.yul\":3497:3522   */\n  swap2\n  pop\n    /* \"#utility.yul\":3410:3528   */\n  pop\n    /* \"#utility.yul\":3359:3528   */\n  swap3\n  swap2\n  pop\n  pop\n  jump\t// out\n    /* \"#utility.yul\":3533:3828   */\ntag_26:\n    /* \"#utility.yul\":3609:3613   */\n  0x00\n    /* \"#utility.yul\":3755:3784   */\n  tag_72\n    /* \"#utility.yul\":3780:3783   */\n  dup4\n    /* \"#utility.yul\":3774:3778   */\n  dup4\n    /* \"#utility.yul\":3755:3784   */\n  tag_25\n  jump\t// in\ntag_72:\n    /* \"#utility.yul\":3747:3784   */\n  swap2\n  pop\n    /* \"#utility.yul\":3817:3820   */\n  dup3\n    /* \"#utility.yul\":3814:3815   */\n  0x02\n    /* \"#utility.yul\":3810:3821   */\n  mul\n    /* \"#utility.yul\":3804:3808   */\n  dup3\n    /* \"#utility.yul\":3801:3822   */\n  or\n    /* \"#utility.yul\":3793:3822   */\n  swap1\n  pop\n    /* \"#utility.yul\":3533:3828   */\n  swap3\n  swap2\n  pop\n  pop\n  jump\t// out\n    /* \"#utility.yul\":3833:5228   */\ntag_2:\n    /* \"#utility.yul\":3950:3987   */\n  tag_74\n    /* \"#utility.yul\":3983:3986   */\n  dup3\n    /* \"#utility.yul\":3950:3987   */\n  tag_7\n  jump\t// in\ntag_74:\n    /* \"#utility.yul\":4052:4070   */\n  0xffffffffffffffff\n    /* \"#utility.yul\":4044:4050   */\n  dup2\n    /* \"#utility.yul\":4041:4071   */\n  gt\n    /* \"#utility.yul\":4038:4094   */\n  iszero\n  tag_75\n  jumpi\n    /* \"#utility.yul\":4074:4092   */\n  tag_76\n  tag_8\n  jump\t// in\ntag_76:\n    /* \"#utility.yul\":4038:4094   */\ntag_75:\n    /* \"#utility.yul\":4118:4156   */\n  tag_77\n    /* \"#utility.yul\":4150:4154   */\n  dup3\n    /* \"#utility.yul\":4144:4155   */\n  sload\n    /* \"#utility.yul\":4118:4156   */\n  tag_10\n  jump\t// in\ntag_77:\n    /* \"#utility.yul\":4203:4270   */\n  tag_78\n    /* \"#utility.yul\":4263:4269   */\n  dup3\n    /* \"#utility.yul\":4255:4261   */\n  dup3\n    /* \"#utility.yul\":4249:4253   */\n  dup6\n    /* \"#utility.yul\":4203:4270   */\n  tag_23\n  jump\t// in\ntag_78:\n    /* \"#utility.yul\":4297:4298   */\n  0x00\n    /* \"#utility.yul\":4321:4325   */\n  0x20\n    /* \"#utility.yul\":4308:4325   */\n  swap1\n  pop\n    /* \"#utility.yul\":4353:4355   */\n  0x1f\n    /* \"#utility.yul\":4345:4351   */\n  dup4\n    /* \"#utility.yul\":4342:4356   */\n  gt\n    /* \"#utility.yul\":4370:4371   */\n  0x01\n    /* \"#utility.yul\":4365:4983   */\n  dup2\n  eq\n  tag_80\n  jumpi\n    /* \"#utility.yul\":5027:5028   */\n  0x00\n    /* \"#utility.yul\":5044:5050   */\n  dup5\n    /* \"#utility.yul\":5041:5118   */\n  iszero\n  tag_81\n  jumpi\n    /* \"#utility.yul\":5093:5102   */\n  dup3\n    /* \"#utility.yul\":5088:5091   */\n  dup8\n    /* \"#utility.yul\":5084:5103   */\n  add\n    /* \"#utility.yul\":5078:5104   */\n  mload\n    /* \"#utility.yul\":5069:5104   */\n  swap1\n  pop\n    /* \"#utility.yul\":5041:5118   */\ntag_81:\n    /* \"#utility.yul\":5144:5211   */\n  tag_82\n    /* \"#utility.yul\":5204:5210   */\n  dup6\n    /* \"#utility.yul\":5197:5202   */\n  dup3\n    /* \"#utility.yul\":5144:5211   */\n  tag_26\n  jump\t// in\ntag_82:\n    /* \"#utility.yul\":5138:5142   */\n  dup7\n    /* \"#utility.yul\":5131:5212   */\n  sstore\n    /* \"#utility.yul\":5000:5222   */\n  pop\n    /* \"#utility.yul\":4335:5222   */\n  jump(tag_79)\n    /* \"#utility.yul\":4365:4983   */\ntag_80:\n    /* \"#utility.yul\":4417:4421   */\n  0x1f\n    /* \"#utility.yul\":4413:4422   */\n  not\n    /* \"#utility.yul\":4405:4411   */\n  dup5\n    /* \"#utility.yul\":4401:4423   */\n  and\n    /* \"#utility.yul\":4451:4488   */\n  tag_83\n    /* \"#utility.yul\":4483:4487   */\n  dup7\n    /* \"#utility.yul\":4451:4488   */\n  tag_11\n  jump\t// in\ntag_83:\n    /* \"#utility.yul\":4510:4511   */\n  0x00\n    /* \"#utility.yul\":4524:4732   */\ntag_84:\n    /* \"#utility.yul\":4538:4545   */\n  dup3\n    /* \"#utility.yul\":4535:4536   */\n  dup2\n    /* \"#utility.yul\":4532:4546   */\n  lt\n    /* \"#utility.yul\":4524:4732   */\n  iszero\n  tag_86\n  jumpi\n    /* \"#utility.yul\":4617:4626   */\n  dup5\n    /* \"#utility.yul\":4612:4615   */\n  dup10\n    /* \"#utility.yul\":4608:4627   */\n  add\n    /* \"#utility.yul\":4602:4628   */\n  mload\n    /* \"#utility.yul\":4594:4600   */\n  dup3\n    /* \"#utility.yul\":4587:4629   */\n  sstore\n    /* \"#utility.yul\":4668:4669   */\n  0x01\n    /* \"#utility.yul\":4660:4666   */\n  dup3\n    /* \"#utility.yul\":4656:4670   */\n  add\n    /* \"#utility.yul\":4646:4670   */\n  swap2\n  pop\n    /* \"#utility.yul\":4715:4717   */\n  0x20\n    /* \"#utility.yul\":4704:4713   */\n  dup6\n    /* \"#utility.yul\":4700:4718   */\n  add\n    /* \"#utility.yul\":4687:4718   */\n  swap5\n  pop\n    /* \"#utility.yul\":4561:4565   */\n  0x20\n    /* \"#utility.yul\":4558:4559   */\n  dup2\n    /* \"#utility.yul\":4554:4566   */\n  add\n    /* \"#utility.yul\":4549:4566   */\n  swap1\n  pop\n    /* \"#utility.yul\":4524:4732   */\n  jump(tag_84)\ntag_86:\n    /* \"#utility.yul\":4760:4766   */\n  dup7\n    /* \"#utility.yul\":4751:4758   */\n  dup4\n    /* \"#utility.yul\":4748:4767   */\n  lt\n    /* \"#utility.yul\":4745:4924   */\n  iszero\n  tag_87\n  jumpi\n    /* \"#utility.yul\":4818:4827   */\n  dup5\n    /* \"#utility.yul\":4813:4816   */\n  dup10\n    /* \"#utility.yul\":4809:4828   */\n  add\n    /* \"#utility.yul\":4803:4829   */\n  mload\n    /* \"#utility.yul\":4861:4909   */\n  tag_88\n    /* \"#utility.yul\":4903:4907   */\n  0x1f\n    /* \"#utility.yul\":4895:4901   */\n  dup10\n    /* \"#utility.yul\":4891:4908   */\n  and\n    /* \"#utility.yul\":4880:4889   */\n  dup3\n    /* \"#utility.yul\":4861:4909   */\n  tag_25\n  jump\t// in\ntag_88:\n    /* \"#utility.yul\":4853:4859   */\n  dup4\n    /* \"#utility.yul\":4846:4910   */\n  sstore\n    /* \"#utility.yul\":4768:4924   */\n  pop\n    /* \"#utility.yul\":4745:4924   */\ntag_87:\n    /* \"#utility.yul\":4970:4971   */\n  0x01\n    /* \"#utility.yul\":4966:4967   */\n  0x02\n    /* \"#utility.yul\":4958:4964   */\n  dup9\n    /* \"#utility.yul\":4954:4968   */\n  mul\n    /* \"#utility.yul\":4950:4972   */\n  add\n    /* \"#utility.yul\":4944:4948   */\n  dup9\n    /* \"#utility.yul\":4937:4973   */\n  sstore\n    /* \"#utility.yul\":4372:4983   */\n  pop\n  pop\n  pop\n    /* \"#utility.yul\":4335:5222   */\ntag_79:\n  pop\n    /* \"#utility.yul\":3925:5228   */\n  pop\n  pop\n  pop\n    /* \"#utility.yul\":3833:5228   */\n  pop\n  pop\n  jump\t// out\n    /* \"base.sol\":60:539  contract Strings {... */\ntag_6:\n  dataSize(sub_0)\n  dup1\n  dataOffset(sub_0)\n  0x00\n  codecopy\n  0x00\n  return\nstop\n\nsub_0: assembly {\n        /* \"base.sol\":60:539  contract Strings {... */\n      mstore(0x40, 0x80)\n      callvalue\n      dup1\n      iszero\n      tag_1\n      jumpi\n      revert(0x00, 0x00)\n    tag_1:\n      pop\n      jumpi(tag_2, lt(calldatasize, 0x04))\n      shr(0xe0, calldataload(0x00))\n      dup1\n      0x06fdde03\n      eq\n      tag_3\n      jumpi\n      dup1\n      0x49da5de4\n      eq\n      tag_4\n      jumpi\n      dup1\n      0x8c160186\n      eq\n      tag_5\n      jumpi\n      dup1\n      0xacb34ce8\n      eq\n      tag_6\n      jumpi\n      dup1\n      0xb38fee92\n      eq\n      tag_7\n      jumpi\n      dup1\n      0xca4c3a41\n      eq\n      tag_8\n      jumpi\n    tag_2:\n      revert(0x00, 0x00)\n        /* \"base.sol\":132:159  string public name = \"John\" */\n    tag_3:\n      tag_9\n      tag_10\n      jump\t// in\n    tag_9:\n      mload(0x40)\n      tag_11\n      swap2\n      swap1\n      tag_12\n      jump\t// in\n    tag_11:\n      mload(0x40)\n      dup1\n      swap2\n      sub\n      swap1\n      return\n        /* \"base.sol\":340:434  function setGreetings(string calldata message) external {... */\n    tag_4:\n      tag_13\n      0x04\n      dup1\n      calldatasize\n      sub\n      dup2\n      add\n      swap1\n      tag_14\n      swap2\n      swap1\n      tag_15\n      jump\t// in\n    tag_14:\n      tag_16\n      jump\t// in\n    tag_13:\n      stop\n        /* \"base.sol\":204:332  function getFullName() public view returns(string memory) {... */\n    tag_5:\n      tag_17\n      tag_18\n      jump\t// in\n    tag_17:\n      mload(0x40)\n      tag_19\n      swap2\n      swap1\n      tag_12\n      jump\t// in\n    tag_19:\n      mload(0x40)\n      dup1\n      swap2\n      sub\n      swap1\n      return\n        /* \"base.sol\":84:125  string public greetings = \"Hello, World!\" */\n    tag_6:\n      tag_20\n      tag_21\n      jump\t// in\n    tag_20:\n      mload(0x40)\n      tag_22\n      swap2\n      swap1\n      tag_12\n      jump\t// in\n    tag_22:\n      mload(0x40)\n      dup1\n      swap2\n      sub\n      swap1\n      return\n        /* \"base.sol\":166:195  string public surname = \"Doe\" */\n    tag_7:\n      tag_23\n      tag_24\n      jump\t// in\n    tag_23:\n      mload(0x40)\n      tag_25\n      swap2\n      swap1\n      tag_12\n      jump\t// in\n    tag_25:\n      mload(0x40)\n      dup1\n      swap2\n      sub\n      swap1\n      return\n        /* \"base.sol\":442:536  function getGreetings() public view returns(string memory) {... */\n    tag_8:\n      tag_26\n      tag_27\n      jump\t// in\n    tag_26:\n      mload(0x40)\n      tag_28\n      swap2\n      swap1\n      tag_12\n      jump\t// in\n    tag_28:\n      mload(0x40)\n      dup1\n      swap2\n      sub\n      swap1\n      return\n        /* \"base.sol\":132:159  string public name = \"John\" */\n    tag_10:\n      0x01\n      dup1\n      sload\n      tag_29\n      swap1\n      tag_30\n      jump\t// in\n    tag_29:\n      dup1\n      0x1f\n      add\n      0x20\n      dup1\n      swap2\n      div\n      mul\n      0x20\n      add\n      mload(0x40)\n      swap1\n      dup2\n      add\n      0x40\n      mstore\n      dup1\n      swap3\n      swap2\n      swap1\n      dup2\n      dup2\n      mstore\n      0x20\n      add\n      dup3\n      dup1\n      sload\n      tag_31\n      swap1\n      tag_30\n      jump\t// in\n    tag_31:\n      dup1\n      iszero\n      tag_32\n      jumpi\n      dup1\n      0x1f\n      lt\n      tag_33\n      jumpi\n      0x0100\n      dup1\n      dup4\n      sload\n      div\n      mul\n      dup4\n      mstore\n      swap2\n      0x20\n      add\n      swap2\n      jump(tag_32)\n    tag_33:\n      dup3\n      add\n      swap2\n      swap1\n      0x00\n      mstore\n      keccak256(0x00, 0x20)\n      swap1\n    tag_34:\n      dup2\n      sload\n      dup2\n      mstore\n      swap1\n      0x01\n      add\n      swap1\n      0x20\n      add\n      dup1\n      dup4\n      gt\n      tag_34\n      jumpi\n      dup3\n      swap1\n      sub\n      0x1f\n      and\n      dup3\n      add\n      swap2\n    tag_32:\n      pop\n      pop\n      pop\n      pop\n      pop\n      dup2\n      jump\t// out\n        /* \"base.sol\":340:434  function setGreetings(string calldata message) external {... */\n    tag_16:\n        /* \"base.sol\":419:426  message */\n      dup2\n      dup2\n        /* \"base.sol\":407:416  greetings */\n      0x00\n        /* \"base.sol\":407:426  greetings = message */\n      swap2\n      dup3\n      tag_36\n      swap3\n      swap2\n      swap1\n      tag_37\n      jump\t// in\n    tag_36:\n      pop\n        /* \"base.sol\":340:434  function setGreetings(string calldata message) external {... */\n      pop\n      pop\n      jump\t// out\n        /* \"base.sol\":204:332  function getFullName() public view returns(string memory) {... */\n    tag_18:\n        /* \"base.sol\":247:260  string memory */\n      0x60\n        /* \"base.sol\":304:308  name */\n      0x01\n        /* \"base.sol\":315:322  surname */\n      0x02\n        /* \"base.sol\":287:323  abi.encodePacked(name, \" \", surname) */\n      add(0x20, mload(0x40))\n      tag_39\n      swap3\n      swap2\n      swap1\n      tag_40\n      jump\t// in\n    tag_39:\n      mload(0x40)\n      0x20\n      dup2\n      dup4\n      sub\n      sub\n      dup2\n      mstore\n      swap1\n      0x40\n      mstore\n        /* \"base.sol\":273:324  return string(abi.encodePacked(name, \" \", surname)) */\n      swap1\n      pop\n        /* \"base.sol\":204:332  function getFullName() public view returns(string memory) {... */\n      swap1\n      jump\t// out\n        /* \"base.sol\":84:125  string public greetings = \"Hello, World!\" */\n    tag_21:\n      0x00\n      dup1\n      sload\n      tag_41\n      swap1\n      tag_30\n      jump\t// in\n    tag_41:\n      dup1\n      0x1f\n      add\n      0x20\n      dup1\n      swap2\n      div\n      mul\n      0x20\n      add\n      mload(0x40)\n      swap1\n      dup2\n      add\n      0x40\n      mstore\n      dup1\n      swap3\n      swap2\n      swap1\n      dup2\n      dup2\n      mstore\n      0x20\n      add\n      dup3\n      dup1\n      sload\n      tag_42\n      swap1\n      tag_30\n      jump\t// in\n    tag_42:\n      dup1\n      iszero\n      tag_43\n      jumpi\n      dup1\n      0x1f\n      lt\n      tag_44\n      jumpi\n      0x0100\n      dup1\n      dup4\n      sload\n      div\n      mul\n      dup4\n      mstore\n      swap2\n      0x20\n      add\n      swap2\n      jump(tag_43)\n    tag_44:\n      dup3\n      add\n      swap2\n      swap1\n      0x00\n      mstore\n      keccak256(0x00, 0x20)\n      swap1\n    tag_45:\n      dup2\n      sload\n      dup2\n      mstore\n      swap1\n      0x01\n      add\n      swap1\n      0x20\n      add\n      dup1\n      dup4\n      gt\n      tag_45\n      jumpi\n      dup3\n      swap1\n      sub\n      0x1f\n      and\n      dup3\n      add\n      swap2\n    tag_43:\n      pop\n      pop\n      pop\n      pop\n      pop\n      dup2\n      jump\t// out\n        /* \"base.sol\":166:195  string public surname = \"Doe\" */\n    tag_24:\n      0x02\n      dup1\n      sload\n      tag_46\n      swap1\n      tag_30\n      jump\t// in\n    tag_46:\n      dup1\n      0x1f\n      add\n      0x20\n      dup1\n      swap2\n      div\n      mul\n      0x20\n      add\n      mload(0x40)\n      swap1\n      dup2\n      add\n      0x40\n      mstore\n      dup1\n      swap3\n      swap2\n      swap1\n      dup2\n      dup2\n      mstore\n      0x20\n      add\n      dup3\n      dup1\n      sload\n      tag_47\n      swap1\n      tag_30\n      jump\t// in\n    tag_47:\n      dup1\n      iszero\n      tag_48\n      jumpi\n      dup1\n      0x1f\n      lt\n      tag_49\n      jumpi\n      0x0100\n      dup1\n      dup4\n      sload\n      div\n      mul\n      dup4\n      mstore\n      swap2\n      0x20\n      add\n      swap2\n      jump(tag_48)\n    tag_49:\n      dup3\n      add\n      swap2\n      swap1\n      0x00\n      mstore\n      keccak256(0x00, 0x20)\n      swap1\n    tag_50:\n      dup2\n      sload\n      dup2\n      mstore\n      swap1\n      0x01\n      add\n      swap1\n      0x20\n      add\n      dup1\n      dup4\n      gt\n      tag_50\n      jumpi\n      dup3\n      swap1\n      sub\n      0x1f\n      and\n      dup3\n      add\n      swap2\n    tag_48:\n      pop\n      pop\n      pop\n      pop\n      pop\n      dup2\n      jump\t// out\n        /* \"base.sol\":442:536  function getGreetings() public view returns(string memory) {... */\n    tag_27:\n        /* \"base.sol\":486:499  string memory */\n      0x60\n        /* \"base.sol\":519:528  greetings */\n      0x00\n        /* \"base.sol\":512:528  return greetings */\n      dup1\n      sload\n      tag_52\n      swap1\n      tag_30\n      jump\t// in\n    tag_52:\n      dup1\n      0x1f\n      add\n      0x20\n      dup1\n      swap2\n      div\n      mul\n      0x20\n      add\n      mload(0x40)\n      swap1\n      dup2\n      add\n      0x40\n      mstore\n      dup1\n      swap3\n      swap2\n      swap1\n      dup2\n      dup2\n      mstore\n      0x20\n      add\n      dup3\n      dup1\n      sload\n      tag_53\n      swap1\n      tag_30\n      jump\t// in\n    tag_53:\n      dup1\n      iszero\n      tag_54\n      jumpi\n      dup1\n      0x1f\n      lt\n      tag_55\n      jumpi\n      0x0100\n      dup1\n      dup4\n      sload\n      div\n      mul\n      dup4\n      mstore\n      swap2\n      0x20\n      add\n      swap2\n      jump(tag_54)\n    tag_55:\n      dup3\n      add\n      swap2\n      swap1\n      0x00\n      mstore\n      keccak256(0x00, 0x20)\n      swap1\n    tag_56:\n      dup2\n      sload\n      dup2\n      mstore\n      swap1\n      0x01\n      add\n      swap1\n      0x20\n      add\n      dup1\n      dup4\n      gt\n      tag_56\n      jumpi\n      dup3\n      swap1\n      sub\n      0x1f\n      and\n      dup3\n      add\n      swap2\n    tag_54:\n      pop\n      pop\n      pop\n      pop\n      pop\n      swap1\n      pop\n        /* \"base.sol\":442:536  function getGreetings() public view returns(string memory) {... */\n      swap1\n      jump\t// out\n        /* \"#utility.yul\":7:106   */\n    tag_57:\n        /* \"#utility.yul\":59:65   */\n      0x00\n        /* \"#utility.yul\":93:98   */\n      dup2\n        /* \"#utility.yul\":87:99   */\n      mload\n        /* \"#utility.yul\":77:99   */\n      swap1\n      pop\n        /* \"#utility.yul\":7:106   */\n      swap2\n      swap1\n      pop\n      jump\t// out\n        /* \"#utility.yul\":112:281   */\n    tag_58:\n        /* \"#utility.yul\":196:207   */\n      0x00\n        /* \"#utility.yul\":230:236   */\n      dup3\n        /* \"#utility.yul\":225:228   */\n      dup3\n        /* \"#utility.yul\":218:237   */\n      mstore\n        /* \"#utility.yul\":270:274   */\n      0x20\n        /* \"#utility.yul\":265:268   */\n      dup3\n        /* \"#utility.yul\":261:275   */\n      add\n        /* \"#utility.yul\":246:275   */\n      swap1\n      pop\n        /* \"#utility.yul\":112:281   */\n      swap3\n      swap2\n      pop\n      pop\n      jump\t// out\n        /* \"#utility.yul\":287:426   */\n    tag_59:\n        /* \"#utility.yul\":376:382   */\n      dup3\n        /* \"#utility.yul\":371:374   */\n      dup2\n        /* \"#utility.yul\":366:369   */\n      dup4\n        /* \"#utility.yul\":360:383   */\n      mcopy\n        /* \"#utility.yul\":417:418   */\n      0x00\n        /* \"#utility.yul\":408:414   */\n      dup4\n        /* \"#utility.yul\":403:406   */\n      dup4\n        /* \"#utility.yul\":399:415   */\n      add\n        /* \"#utility.yul\":392:419   */\n      mstore\n        /* \"#utility.yul\":287:426   */\n      pop\n      pop\n      pop\n      jump\t// out\n        /* \"#utility.yul\":432:534   */\n    tag_60:\n        /* \"#utility.yul\":473:479   */\n      0x00\n        /* \"#utility.yul\":524:526   */\n      0x1f\n        /* \"#utility.yul\":520:527   */\n      not\n        /* \"#utility.yul\":515:517   */\n      0x1f\n        /* \"#utility.yul\":508:513   */\n      dup4\n        /* \"#utility.yul\":504:518   */\n      add\n        /* \"#utility.yul\":500:528   */\n      and\n        /* \"#utility.yul\":490:528   */\n      swap1\n      pop\n        /* \"#utility.yul\":432:534   */\n      swap2\n      swap1\n      pop\n      jump\t// out\n        /* \"#utility.yul\":540:917   */\n    tag_61:\n        /* \"#utility.yul\":628:631   */\n      0x00\n        /* \"#utility.yul\":656:695   */\n      tag_98\n        /* \"#utility.yul\":689:694   */\n      dup3\n        /* \"#utility.yul\":656:695   */\n      tag_57\n      jump\t// in\n    tag_98:\n        /* \"#utility.yul\":711:782   */\n      tag_99\n        /* \"#utility.yul\":775:781   */\n      dup2\n        /* \"#utility.yul\":770:773   */\n      dup6\n        /* \"#utility.yul\":711:782   */\n      tag_58\n      jump\t// in\n    tag_99:\n        /* \"#utility.yul\":704:782   */\n      swap4\n      pop\n        /* \"#utility.yul\":791:856   */\n      tag_100\n        /* \"#utility.yul\":849:855   */\n      dup2\n        /* \"#utility.yul\":844:847   */\n      dup6\n        /* \"#utility.yul\":837:841   */\n      0x20\n        /* \"#utility.yul\":830:835   */\n      dup7\n        /* \"#utility.yul\":826:842   */\n      add\n        /* \"#utility.yul\":791:856   */\n      tag_59\n      jump\t// in\n    tag_100:\n        /* \"#utility.yul\":881:910   */\n      tag_101\n        /* \"#utility.yul\":903:909   */\n      dup2\n        /* \"#utility.yul\":881:910   */\n      tag_60\n      jump\t// in\n    tag_101:\n        /* \"#utility.yul\":876:879   */\n      dup5\n        /* \"#utility.yul\":872:911   */\n      add\n        /* \"#utility.yul\":865:911   */\n      swap2\n      pop\n        /* \"#utility.yul\":632:917   */\n      pop\n        /* \"#utility.yul\":540:917   */\n      swap3\n      swap2\n      pop\n      pop\n      jump\t// out\n        /* \"#utility.yul\":923:1236   */\n    tag_12:\n        /* \"#utility.yul\":1036:1040   */\n      0x00\n        /* \"#utility.yul\":1074:1076   */\n      0x20\n        /* \"#utility.yul\":1063:1072   */\n      dup3\n        /* \"#utility.yul\":1059:1077   */\n      add\n        /* \"#utility.yul\":1051:1077   */\n      swap1\n      pop\n        /* \"#utility.yul\":1123:1132   */\n      dup2\n        /* \"#utility.yul\":1117:1121   */\n      dup2\n        /* \"#utility.yul\":1113:1133   */\n      sub\n        /* \"#utility.yul\":1109:1110   */\n      0x00\n        /* \"#utility.yul\":1098:1107   */\n      dup4\n        /* \"#utility.yul\":1094:1111   */\n      add\n        /* \"#utility.yul\":1087:1134   */\n      mstore\n        /* \"#utility.yul\":1151:1229   */\n      tag_103\n        /* \"#utility.yul\":1224:1228   */\n      dup2\n        /* \"#utility.yul\":1215:1221   */\n      dup5\n        /* \"#utility.yul\":1151:1229   */\n      tag_61\n      jump\t// in\n    tag_103:\n        /* \"#utility.yul\":1143:1229   */\n      swap1\n      pop\n        /* \"#utility.yul\":923:1236   */\n      swap3\n      swap2\n      pop\n      pop\n      jump\t// out\n        /* \"#utility.yul\":1323:1440   */\n    tag_63:\n        /* \"#utility.yul\":1432:1433   */\n      0x00\n        /* \"#utility.yul\":1429:1430   */\n      0x00\n        /* \"#utility.yul\":1422:1434   */\n      revert\n        /* \"#utility.yul\":1446:1563   */\n    tag_64:\n        /* \"#utility.yul\":1555:1556   */\n      0x00\n        /* \"#utility.yul\":1552:1553   */\n      0x00\n        /* \"#utility.yul\":1545:1557   */\n      revert\n        /* \"#utility.yul\":1569:1686   */\n    tag_65:\n        /* \"#utility.yul\":1678:1679   */\n      0x00\n        /* \"#utility.yul\":1675:1676   */\n      0x00\n        /* \"#utility.yul\":1668:1680   */\n      revert\n        /* \"#utility.yul\":1692:1809   */\n    tag_66:\n        /* \"#utility.yul\":1801:1802   */\n      0x00\n        /* \"#utility.yul\":1798:1799   */\n      0x00\n        /* \"#utility.yul\":1791:1803   */\n      revert\n        /* \"#utility.yul\":1815:1932   */\n    tag_67:\n        /* \"#utility.yul\":1924:1925   */\n      0x00\n        /* \"#utility.yul\":1921:1922   */\n      0x00\n        /* \"#utility.yul\":1914:1926   */\n      revert\n        /* \"#utility.yul\":1952:2505   */\n    tag_68:\n        /* \"#utility.yul\":2010:2018   */\n      0x00\n        /* \"#utility.yul\":2020:2026   */\n      0x00\n        /* \"#utility.yul\":2070:2073   */\n      dup4\n        /* \"#utility.yul\":2063:2067   */\n      0x1f\n        /* \"#utility.yul\":2055:2061   */\n      dup5\n        /* \"#utility.yul\":2051:2068   */\n      add\n        /* \"#utility.yul\":2047:2074   */\n      slt\n        /* \"#utility.yul\":2037:2159   */\n      tag_111\n      jumpi\n        /* \"#utility.yul\":2078:2157   */\n      tag_112\n      tag_65\n      jump\t// in\n    tag_112:\n        /* \"#utility.yul\":2037:2159   */\n    tag_111:\n        /* \"#utility.yul\":2191:2197   */\n      dup3\n        /* \"#utility.yul\":2178:2198   */\n      calldataload\n        /* \"#utility.yul\":2168:2198   */\n      swap1\n      pop\n        /* \"#utility.yul\":2221:2239   */\n      0xffffffffffffffff\n        /* \"#utility.yul\":2213:2219   */\n      dup2\n        /* \"#utility.yul\":2210:2240   */\n      gt\n        /* \"#utility.yul\":2207:2324   */\n      iszero\n      tag_113\n      jumpi\n        /* \"#utility.yul\":2243:2322   */\n      tag_114\n      tag_66\n      jump\t// in\n    tag_114:\n        /* \"#utility.yul\":2207:2324   */\n    tag_113:\n        /* \"#utility.yul\":2357:2361   */\n      0x20\n        /* \"#utility.yul\":2349:2355   */\n      dup4\n        /* \"#utility.yul\":2345:2362   */\n      add\n        /* \"#utility.yul\":2333:2362   */\n      swap2\n      pop\n        /* \"#utility.yul\":2411:2414   */\n      dup4\n        /* \"#utility.yul\":2403:2407   */\n      0x01\n        /* \"#utility.yul\":2395:2401   */\n      dup3\n        /* \"#utility.yul\":2391:2408   */\n      mul\n        /* \"#utility.yul\":2381:2389   */\n      dup4\n        /* \"#utility.yul\":2377:2409   */\n      add\n        /* \"#utility.yul\":2374:2415   */\n      gt\n        /* \"#utility.yul\":2371:2499   */\n      iszero\n      tag_115\n      jumpi\n        /* \"#utility.yul\":2418:2497   */\n      tag_116\n      tag_67\n      jump\t// in\n    tag_116:\n        /* \"#utility.yul\":2371:2499   */\n    tag_115:\n        /* \"#utility.yul\":1952:2505   */\n      swap3\n      pop\n      swap3\n      swap1\n      pop\n      jump\t// out\n        /* \"#utility.yul\":2511:3040   */\n    tag_15:\n        /* \"#utility.yul\":2582:2588   */\n      0x00\n        /* \"#utility.yul\":2590:2596   */\n      0x00\n        /* \"#utility.yul\":2639:2641   */\n      0x20\n        /* \"#utility.yul\":2627:2636   */\n      dup4\n        /* \"#utility.yul\":2618:2625   */\n      dup6\n        /* \"#utility.yul\":2614:2637   */\n      sub\n        /* \"#utility.yul\":2610:2642   */\n      slt\n        /* \"#utility.yul\":2607:2726   */\n      iszero\n      tag_118\n      jumpi\n        /* \"#utility.yul\":2645:2724   */\n      tag_119\n      tag_63\n      jump\t// in\n    tag_119:\n        /* \"#utility.yul\":2607:2726   */\n    tag_118:\n        /* \"#utility.yul\":2793:2794   */\n      0x00\n        /* \"#utility.yul\":2782:2791   */\n      dup4\n        /* \"#utility.yul\":2778:2795   */\n      add\n        /* \"#utility.yul\":2765:2796   */\n      calldataload\n        /* \"#utility.yul\":2823:2841   */\n      0xffffffffffffffff\n        /* \"#utility.yul\":2815:2821   */\n      dup2\n        /* \"#utility.yul\":2812:2842   */\n      gt\n        /* \"#utility.yul\":2809:2926   */\n      iszero\n      tag_120\n      jumpi\n        /* \"#utility.yul\":2845:2924   */\n      tag_121\n      tag_64\n      jump\t// in\n    tag_121:\n        /* \"#utility.yul\":2809:2926   */\n    tag_120:\n        /* \"#utility.yul\":2958:3023   */\n      tag_122\n        /* \"#utility.yul\":3015:3022   */\n      dup6\n        /* \"#utility.yul\":3006:3012   */\n      dup3\n        /* \"#utility.yul\":2995:3004   */\n      dup7\n        /* \"#utility.yul\":2991:3013   */\n      add\n        /* \"#utility.yul\":2958:3023   */\n      tag_68\n      jump\t// in\n    tag_122:\n        /* \"#utility.yul\":2940:3023   */\n      swap3\n      pop\n      swap3\n      pop\n        /* \"#utility.yul\":2736:3033   */\n      pop\n        /* \"#utility.yul\":2511:3040   */\n      swap3\n      pop\n      swap3\n      swap1\n      pop\n      jump\t// out\n        /* \"#utility.yul\":3046:3226   */\n    tag_69:\n        /* \"#utility.yul\":3094:3171   */\n      0x4e487b7100000000000000000000000000000000000000000000000000000000\n        /* \"#utility.yul\":3091:3092   */\n      0x00\n        /* \"#utility.yul\":3084:3172   */\n      mstore\n        /* \"#utility.yul\":3191:3195   */\n      0x22\n        /* \"#utility.yul\":3188:3189   */\n      0x04\n        /* \"#utility.yul\":3181:3196   */\n      mstore\n        /* \"#utility.yul\":3215:3219   */\n      0x24\n        /* \"#utility.yul\":3212:3213   */\n      0x00\n        /* \"#utility.yul\":3205:3220   */\n      revert\n        /* \"#utility.yul\":3232:3552   */\n    tag_30:\n        /* \"#utility.yul\":3276:3282   */\n      0x00\n        /* \"#utility.yul\":3313:3314   */\n      0x02\n        /* \"#utility.yul\":3307:3311   */\n      dup3\n        /* \"#utility.yul\":3303:3315   */\n      div\n        /* \"#utility.yul\":3293:3315   */\n      swap1\n      pop\n        /* \"#utility.yul\":3360:3361   */\n      0x01\n        /* \"#utility.yul\":3354:3358   */\n      dup3\n        /* \"#utility.yul\":3350:3362   */\n      and\n        /* \"#utility.yul\":3381:3399   */\n      dup1\n        /* \"#utility.yul\":3371:3452   */\n      tag_125\n      jumpi\n        /* \"#utility.yul\":3437:3441   */\n      0x7f\n        /* \"#utility.yul\":3429:3435   */\n      dup3\n        /* \"#utility.yul\":3425:3442   */\n      and\n        /* \"#utility.yul\":3415:3442   */\n      swap2\n      pop\n        /* \"#utility.yul\":3371:3452   */\n    tag_125:\n        /* \"#utility.yul\":3499:3501   */\n      0x20\n        /* \"#utility.yul\":3491:3497   */\n      dup3\n        /* \"#utility.yul\":3488:3502   */\n      lt\n        /* \"#utility.yul\":3468:3486   */\n      dup2\n        /* \"#utility.yul\":3465:3503   */\n      sub\n        /* \"#utility.yul\":3462:3546   */\n      tag_126\n      jumpi\n        /* \"#utility.yul\":3518:3536   */\n      tag_127\n      tag_69\n      jump\t// in\n    tag_127:\n        /* \"#utility.yul\":3462:3546   */\n    tag_126:\n        /* \"#utility.yul\":3283:3552   */\n      pop\n        /* \"#utility.yul\":3232:3552   */\n      swap2\n      swap1\n      pop\n      jump\t// out\n        /* \"#utility.yul\":3558:3655   */\n    tag_70:\n        /* \"#utility.yul\":3617:3623   */\n      0x00\n        /* \"#utility.yul\":3645:3648   */\n      dup3\n        /* \"#utility.yul\":3635:3648   */\n      swap1\n      pop\n        /* \"#utility.yul\":3558:3655   */\n      swap3\n      swap2\n      pop\n      pop\n      jump\t// out\n        /* \"#utility.yul\":3661:3841   */\n    tag_71:\n        /* \"#utility.yul\":3709:3786   */\n      0x4e487b7100000000000000000000000000000000000000000000000000000000\n        /* \"#utility.yul\":3706:3707   */\n      0x00\n        /* \"#utility.yul\":3699:3787   */\n      mstore\n        /* \"#utility.yul\":3806:3810   */\n      0x41\n        /* \"#utility.yul\":3803:3804   */\n      0x04\n        /* \"#utility.yul\":3796:3811   */\n      mstore\n        /* \"#utility.yul\":3830:3834   */\n      0x24\n        /* \"#utility.yul\":3827:3828   */\n      0x00\n        /* \"#utility.yul\":3820:3835   */\n      revert\n        /* \"#utility.yul\":3847:3988   */\n    tag_72:\n        /* \"#utility.yul\":3896:3900   */\n      0x00\n        /* \"#utility.yul\":3919:3922   */\n      dup2\n        /* \"#utility.yul\":3911:3922   */\n      swap1\n      pop\n        /* \"#utility.yul\":3942:3945   */\n      dup2\n        /* \"#utility.yul\":3939:3940   */\n      0x00\n        /* \"#utility.yul\":3932:3946   */\n      mstore\n        /* \"#utility.yul\":3976:3980   */\n      0x20\n        /* \"#utility.yul\":3973:3974   */\n      0x00\n        /* \"#utility.yul\":3963:3981   */\n      keccak256\n        /* \"#utility.yul\":3955:3981   */\n      swap1\n      pop\n        /* \"#utility.yul\":3847:3988   */\n      swap2\n      swap1\n      pop\n      jump\t// out\n        /* \"#utility.yul\":3994:4087   */\n    tag_73:\n        /* \"#utility.yul\":4031:4037   */\n      0x00\n        /* \"#utility.yul\":4078:4080   */\n      0x20\n        /* \"#utility.yul\":4073:4075   */\n      0x1f\n        /* \"#utility.yul\":4066:4071   */\n      dup4\n        /* \"#utility.yul\":4062:4076   */\n      add\n        /* \"#utility.yul\":4058:4081   */\n      div\n        /* \"#utility.yul\":4048:4081   */\n      swap1\n      pop\n        /* \"#utility.yul\":3994:4087   */\n      swap2\n      swap1\n      pop\n      jump\t// out\n        /* \"#utility.yul\":4093:4200   */\n    tag_74:\n        /* \"#utility.yul\":4137:4145   */\n      0x00\n        /* \"#utility.yul\":4187:4192   */\n      dup3\n        /* \"#utility.yul\":4181:4185   */\n      dup3\n        /* \"#utility.yul\":4177:4193   */\n      shl\n        /* \"#utility.yul\":4156:4193   */\n      swap1\n      pop\n        /* \"#utility.yul\":4093:4200   */\n      swap3\n      swap2\n      pop\n      pop\n      jump\t// out\n        /* \"#utility.yul\":4206:4599   */\n    tag_75:\n        /* \"#utility.yul\":4275:4281   */\n      0x00\n        /* \"#utility.yul\":4325:4326   */\n      0x08\n        /* \"#utility.yul\":4313:4323   */\n      dup4\n        /* \"#utility.yul\":4309:4327   */\n      mul\n        /* \"#utility.yul\":4348:4445   */\n      tag_134\n        /* \"#utility.yul\":4378:4444   */\n      0xffffffffffffffffffffffffffffffffffffffffffffffffffffffffffffffff\n        /* \"#utility.yul\":4367:4376   */\n      dup3\n        /* \"#utility.yul\":4348:4445   */\n      tag_74\n      jump\t// in\n    tag_134:\n        /* \"#utility.yul\":4466:4505   */\n      tag_135\n        /* \"#utility.yul\":4496:4504   */\n      dup7\n        /* \"#utility.yul\":4485:4494   */\n      dup4\n        /* \"#utility.yul\":4466:4505   */\n      tag_74\n      jump\t// in\n    tag_135:\n        /* \"#utility.yul\":4454:4505   */\n      swap6\n      pop\n        /* \"#utility.yul\":4538:4542   */\n      dup1\n        /* \"#utility.yul\":4534:4543   */\n      not\n        /* \"#utility.yul\":4527:4532   */\n      dup5\n        /* \"#utility.yul\":4523:4544   */\n      and\n        /* \"#utility.yul\":4514:4544   */\n      swap4\n      pop\n        /* \"#utility.yul\":4587:4591   */\n      dup1\n        /* \"#utility.yul\":4577:4585   */\n      dup7\n        /* \"#utility.yul\":4573:4592   */\n      and\n        /* \"#utility.yul\":4566:4571   */\n      dup5\n        /* \"#utility.yul\":4563:4593   */\n      or\n        /* \"#utility.yul\":4553:4593   */\n      swap3\n      pop\n        /* \"#utility.yul\":4282:4599   */\n      pop\n      pop\n        /* \"#utility.yul\":4206:4599   */\n      swap4\n      swap3\n      pop\n      pop\n      pop\n      jump\t// out\n        /* \"#utility.yul\":4605:4682   */\n    tag_76:\n        /* \"#utility.yul\":4642:4649   */\n      0x00\n        /* \"#utility.yul\":4671:4676   */\n      dup2\n        /* \"#utility.yul\":4660:4676   */\n      swap1\n      pop\n        /* \"#utility.yul\":4605:4682   */\n      swap2\n      swap1\n      pop\n      jump\t// out\n        /* \"#utility.yul\":4688:4748   */\n    tag_77:\n        /* \"#utility.yul\":4716:4719   */\n      0x00\n        /* \"#utility.yul\":4737:4742   */\n      dup2\n        /* \"#utility.yul\":4730:4742   */\n      swap1\n      pop\n        /* \"#utility.yul\":4688:4748   */\n      swap2\n      swap1\n      pop\n      jump\t// out\n        /* \"#utility.yul\":4754:4896   */\n    tag_78:\n        /* \"#utility.yul\":4804:4813   */\n      0x00\n        /* \"#utility.yul\":4837:4890   */\n      tag_139\n        /* \"#utility.yul\":4855:4889   */\n      tag_140\n        /* \"#utility.yul\":4864:4888   */\n      tag_141\n        /* \"#utility.yul\":4882:4887   */\n      dup5\n        /* \"#utility.yul\":4864:4888   */\n      tag_76\n      jump\t// in\n    tag_141:\n        /* \"#utility.yul\":4855:4889   */\n      tag_77\n      jump\t// in\n    tag_140:\n        /* \"#utility.yul\":4837:4890   */\n      tag_76\n      jump\t// in\n    tag_139:\n        /* \"#utility.yul\":4824:4890   */\n      swap1\n      pop\n        /* \"#utility.yul\":4754:4896   */\n      swap2\n      swap1\n      pop\n      jump\t// out\n        /* \"#utility.yul\":4902:4977   */\n    tag_79:\n        /* \"#utility.yul\":4945:4948   */\n      0x00\n        /* \"#utility.yul\":4966:4971   */\n      dup2\n        /* \"#utility.yul\":4959:4971   */\n      swap1\n      pop\n        /* \"#utility.yul\":4902:4977   */\n      swap2\n      swap1\n      pop\n      jump\t// out\n        /* \"#utility.yul\":4983:5252   */\n    tag_80:\n        /* \"#utility.yul\":5093:5132   */\n      tag_144\n        /* \"#utility.yul\":5124:5131   */\n      dup4\n        /* \"#utility.yul\":5093:5132   */\n      tag_78\n      jump\t// in\n    tag_144:\n        /* \"#utility.yul\":5154:5245   */\n      tag_145\n        /* \"#utility.yul\":5203:5244   */\n      tag_146\n        /* \"#utility.yul\":5227:5243   */\n      dup3\n        /* \"#utility.yul\":5203:5244   */\n      tag_79\n      jump\t// in\n    tag_146:\n        /* \"#utility.yul\":5195:5201   */\n      dup5\n        /* \"#utility.yul\":5188:5192   */\n      dup5\n        /* \"#utility.yul\":5182:5193   */\n      sload\n        /* \"#utility.yul\":5154:5245   */\n      tag_75\n      jump\t// in\n    tag_145:\n        /* \"#utility.yul\":5148:5152   */\n      dup3\n        /* \"#utility.yul\":5141:5246   */\n      sstore\n        /* \"#utility.yul\":5059:5252   */\n      pop\n        /* \"#utility.yul\":4983:5252   */\n      pop\n      pop\n      pop\n      jump\t// out\n        /* \"#utility.yul\":5258:5331   */\n    tag_81:\n        /* \"#utility.yul\":5303:5306   */\n      0x00\n        /* \"#utility.yul\":5324:5325   */\n      0x00\n        /* \"#utility.yul\":5317:5325   */\n      swap1\n      pop\n        /* \"#utility.yul\":5258:5331   */\n      swap1\n      jump\t// out\n        /* \"#utility.yul\":5337:5526   */\n    tag_82:\n        /* \"#utility.yul\":5414:5446   */\n      tag_149\n      tag_81\n      jump\t// in\n    tag_149:\n        /* \"#utility.yul\":5455:5520   */\n      tag_150\n        /* \"#utility.yul\":5513:5519   */\n      dup2\n        /* \"#utility.yul\":5505:5511   */\n      dup5\n        /* \"#utility.yul\":5499:5503   */\n      dup5\n        /* \"#utility.yul\":5455:5520   */\n      tag_80\n      jump\t// in\n    tag_150:\n        /* \"#utility.yul\":5390:5526   */\n      pop\n        /* \"#utility.yul\":5337:5526   */\n      pop\n      pop\n      jump\t// out\n        /* \"#utility.yul\":5532:5718   */\n    tag_83:\n        /* \"#utility.yul\":5592:5712   */\n    tag_152:\n        /* \"#utility.yul\":5609:5612   */\n      dup2\n        /* \"#utility.yul\":5602:5607   */\n      dup2\n        /* \"#utility.yul\":5599:5613   */\n      lt\n        /* \"#utility.yul\":5592:5712   */\n      iszero\n      tag_154\n      jumpi\n        /* \"#utility.yul\":5663:5702   */\n      tag_155\n        /* \"#utility.yul\":5700:5701   */\n      0x00\n        /* \"#utility.yul\":5693:5698   */\n      dup3\n        /* \"#utility.yul\":5663:5702   */\n      tag_82\n      jump\t// in\n    tag_155:\n        /* \"#utility.yul\":5636:5637   */\n      0x01\n        /* \"#utility.yul\":5629:5634   */\n      dup2\n        /* \"#utility.yul\":5625:5638   */\n      add\n        /* \"#utility.yul\":5616:5638   */\n      swap1\n      pop\n        /* \"#utility.yul\":5592:5712   */\n      jump(tag_152)\n    tag_154:\n        /* \"#utility.yul\":5532:5718   */\n      pop\n      pop\n      jump\t// out\n        /* \"#utility.yul\":5724:6267   */\n    tag_84:\n        /* \"#utility.yul\":5825:5827   */\n      0x1f\n        /* \"#utility.yul\":5820:5823   */\n      dup3\n        /* \"#utility.yul\":5817:5828   */\n      gt\n        /* \"#utility.yul\":5814:6260   */\n      iszero\n      tag_157\n      jumpi\n        /* \"#utility.yul\":5859:5897   */\n      tag_158\n        /* \"#utility.yul\":5891:5896   */\n      dup2\n        /* \"#utility.yul\":5859:5897   */\n      tag_72\n      jump\t// in\n    tag_158:\n        /* \"#utility.yul\":5943:5972   */\n      tag_159\n        /* \"#utility.yul\":5961:5971   */\n      dup5\n        /* \"#utility.yul\":5943:5972   */\n      tag_73\n      jump\t// in\n    tag_159:\n        /* \"#utility.yul\":5933:5941   */\n      dup2\n        /* \"#utility.yul\":5929:5973   */\n      add\n        /* \"#utility.yul\":6126:6128   */\n      0x20\n        /* \"#utility.yul\":6114:6124   */\n      dup6\n        /* \"#utility.yul\":6111:6129   */\n      lt\n        /* \"#utility.yul\":6108:6157   */\n      iszero\n      tag_160\n      jumpi\n        /* \"#utility.yul\":6147:6155   */\n      dup2\n        /* \"#utility.yul\":6132:6155   */\n      swap1\n      pop\n        /* \"#utility.yul\":6108:6157   */\n    tag_160:\n        /* \"#utility.yul\":6170:6250   */\n      tag_161\n        /* \"#utility.yul\":6226:6248   */\n      tag_162\n        /* \"#utility.yul\":6244:6247   */\n      dup6\n        /* \"#utility.yul\":6226:6248   */\n      tag_73\n      jump\t// in\n    tag_162:\n        /* \"#utility.yul\":6216:6224   */\n      dup4\n        /* \"#utility.yul\":6212:6249   */\n      add\n        /* \"#utility.yul\":6199:6210   */\n      dup3\n        /* \"#utility.yul\":6170:6250   */\n      tag_83\n      jump\t// in\n    tag_161:\n        /* \"#utility.yul\":5829:6260   */\n      pop\n      pop\n        /* \"#utility.yul\":5814:6260   */\n    tag_157:\n        /* \"#utility.yul\":5724:6267   */\n      pop\n      pop\n      pop\n      jump\t// out\n        /* \"#utility.yul\":6273:6390   */\n    tag_85:\n        /* \"#utility.yul\":6327:6335   */\n      0x00\n        /* \"#utility.yul\":6377:6382   */\n      dup3\n        /* \"#utility.yul\":6371:6375   */\n      dup3\n        /* \"#utility.yul\":6367:6383   */\n      shr\n        /* \"#utility.yul\":6346:6383   */\n      swap1\n      pop\n        /* \"#utility.yul\":6273:6390   */\n      swap3\n      swap2\n      pop\n      pop\n      jump\t// out\n        /* \"#utility.yul\":6396:6565   */\n    tag_86:\n        /* \"#utility.yul\":6440:6446   */\n      0x00\n        /* \"#utility.yul\":6473:6524   */\n      tag_165\n        /* \"#utility.yul\":6521:6522   */\n      0x00\n        /* \"#utility.yul\":6517:6523   */\n      not\n        /* \"#utility.yul\":6509:6514   */\n      dup5\n        /* \"#utility.yul\":6506:6507   */\n      0x08\n        /* \"#utility.yul\":6502:6515   */\n      mul\n        /* \"#utility.yul\":6473:6524   */\n      tag_85\n      jump\t// in\n    tag_165:\n        /* \"#utility.yul\":6469:6525   */\n      not\n        /* \"#utility.yul\":6554:6558   */\n      dup1\n        /* \"#utility.yul\":6548:6552   */\n      dup4\n        /* \"#utility.yul\":6544:6559   */\n      and\n        /* \"#utility.yul\":6534:6559   */\n      swap2\n      pop\n        /* \"#utility.yul\":6447:6565   */\n      pop\n        /* \"#utility.yul\":6396:6565   */\n      swap3\n      swap2\n      pop\n      pop\n      jump\t// out\n        /* \"#utility.yul\":6570:6865   */\n    tag_87:\n        /* \"#utility.yul\":6646:6650   */\n      0x00\n        /* \"#utility.yul\":6792:6821   */\n      tag_167\n        /* \"#utility.yul\":6817:6820   */\n      dup4\n        /* \"#utility.yul\":6811:6815   */\n      dup4\n        /* \"#utility.yul\":6792:6821   */\n      tag_86\n      jump\t// in\n    tag_167:\n        /* \"#utility.yul\":6784:6821   */\n      swap2\n      pop\n        /* \"#utility.yul\":6854:6857   */\n      dup3\n        /* \"#utility.yul\":6851:6852   */\n      0x02\n        /* \"#utility.yul\":6847:6858   */\n      mul\n        /* \"#utility.yul\":6841:6845   */\n      dup3\n        /* \"#utility.yul\":6838:6859   */\n      or\n        /* \"#utility.yul\":6830:6859   */\n      swap1\n      pop\n        /* \"#utility.yul\":6570:6865   */\n      swap3\n      swap2\n      pop\n      pop\n      jump\t// out\n        /* \"#utility.yul\":6870:8273   */\n    tag_37:\n        /* \"#utility.yul\":6994:7038   */\n      tag_169\n        /* \"#utility.yul\":7034:7037   */\n      dup4\n        /* \"#utility.yul\":7029:7032   */\n      dup4\n        /* \"#utility.yul\":6994:7038   */\n      tag_70\n      jump\t// in\n    tag_169:\n        /* \"#utility.yul\":7103:7121   */\n      0xffffffffffffffff\n        /* \"#utility.yul\":7095:7101   */\n      dup2\n        /* \"#utility.yul\":7092:7122   */\n      gt\n        /* \"#utility.yul\":7089:7145   */\n      iszero\n      tag_170\n      jumpi\n        /* \"#utility.yul\":7125:7143   */\n      tag_171\n      tag_71\n      jump\t// in\n    tag_171:\n        /* \"#utility.yul\":7089:7145   */\n    tag_170:\n        /* \"#utility.yul\":7169:7207   */\n      tag_172\n        /* \"#utility.yul\":7201:7205   */\n      dup3\n        /* \"#utility.yul\":7195:7206   */\n      sload\n        /* \"#utility.yul\":7169:7207   */\n      tag_30\n      jump\t// in\n    tag_172:\n        /* \"#utility.yul\":7254:7321   */\n      tag_173\n        /* \"#utility.yul\":7314:7320   */\n      dup3\n        /* \"#utility.yul\":7306:7312   */\n      dup3\n        /* \"#utility.yul\":7300:7304   */\n      dup6\n        /* \"#utility.yul\":7254:7321   */\n      tag_84\n      jump\t// in\n    tag_173:\n        /* \"#utility.yul\":7348:7349   */\n      0x00\n        /* \"#utility.yul\":7377:7379   */\n      0x1f\n        /* \"#utility.yul\":7369:7375   */\n      dup4\n        /* \"#utility.yul\":7366:7380   */\n      gt\n        /* \"#utility.yul\":7394:7395   */\n      0x01\n        /* \"#utility.yul\":7389:8021   */\n      dup2\n      eq\n      tag_175\n      jumpi\n        /* \"#utility.yul\":8065:8066   */\n      0x00\n        /* \"#utility.yul\":8082:8088   */\n      dup5\n        /* \"#utility.yul\":8079:8163   */\n      iszero\n      tag_176\n      jumpi\n        /* \"#utility.yul\":8138:8147   */\n      dup3\n        /* \"#utility.yul\":8133:8136   */\n      dup8\n        /* \"#utility.yul\":8129:8148   */\n      add\n        /* \"#utility.yul\":8116:8149   */\n      calldataload\n        /* \"#utility.yul\":8107:8149   */\n      swap1\n      pop\n        /* \"#utility.yul\":8079:8163   */\n    tag_176:\n        /* \"#utility.yul\":8189:8256   */\n      tag_177\n        /* \"#utility.yul\":8249:8255   */\n      dup6\n        /* \"#utility.yul\":8242:8247   */\n      dup3\n        /* \"#utility.yul\":8189:8256   */\n      tag_87\n      jump\t// in\n    tag_177:\n        /* \"#utility.yul\":8183:8187   */\n      dup7\n        /* \"#utility.yul\":8176:8257   */\n      sstore\n        /* \"#utility.yul\":8038:8267   */\n      pop\n        /* \"#utility.yul\":7359:8267   */\n      jump(tag_174)\n        /* \"#utility.yul\":7389:8021   */\n    tag_175:\n        /* \"#utility.yul\":7441:7445   */\n      0x1f\n        /* \"#utility.yul\":7437:7446   */\n      not\n        /* \"#utility.yul\":7429:7435   */\n      dup5\n        /* \"#utility.yul\":7425:7447   */\n      and\n        /* \"#utility.yul\":7475:7512   */\n      tag_178\n        /* \"#utility.yul\":7507:7511   */\n      dup7\n        /* \"#utility.yul\":7475:7512   */\n      tag_72\n      jump\t// in\n    tag_178:\n        /* \"#utility.yul\":7534:7535   */\n      0x00\n        /* \"#utility.yul\":7548:7763   */\n    tag_179:\n        /* \"#utility.yul\":7562:7569   */\n      dup3\n        /* \"#utility.yul\":7559:7560   */\n      dup2\n        /* \"#utility.yul\":7556:7570   */\n      lt\n        /* \"#utility.yul\":7548:7763   */\n      iszero\n      tag_181\n      jumpi\n        /* \"#utility.yul\":7648:7657   */\n      dup5\n        /* \"#utility.yul\":7643:7646   */\n      dup10\n        /* \"#utility.yul\":7639:7658   */\n      add\n        /* \"#utility.yul\":7626:7659   */\n      calldataload\n        /* \"#utility.yul\":7618:7624   */\n      dup3\n        /* \"#utility.yul\":7611:7660   */\n      sstore\n        /* \"#utility.yul\":7699:7700   */\n      0x01\n        /* \"#utility.yul\":7691:7697   */\n      dup3\n        /* \"#utility.yul\":7687:7701   */\n      add\n        /* \"#utility.yul\":7677:7701   */\n      swap2\n      pop\n        /* \"#utility.yul\":7746:7748   */\n      0x20\n        /* \"#utility.yul\":7735:7744   */\n      dup6\n        /* \"#utility.yul\":7731:7749   */\n      add\n        /* \"#utility.yul\":7718:7749   */\n      swap5\n      pop\n        /* \"#utility.yul\":7585:7589   */\n      0x20\n        /* \"#utility.yul\":7582:7583   */\n      dup2\n        /* \"#utility.yul\":7578:7590   */\n      add\n        /* \"#utility.yul\":7573:7590   */\n      swap1\n      pop\n        /* \"#utility.yul\":7548:7763   */\n      jump(tag_179)\n    tag_181:\n        /* \"#utility.yul\":7791:7797   */\n      dup7\n        /* \"#utility.yul\":7782:7789   */\n      dup4\n        /* \"#utility.yul\":7779:7798   */\n      lt\n        /* \"#utility.yul\":7776:7962   */\n      iszero\n      tag_182\n      jumpi\n        /* \"#utility.yul\":7856:7865   */\n      dup5\n        /* \"#utility.yul\":7851:7854   */\n      dup10\n        /* \"#utility.yul\":7847:7866   */\n      add\n        /* \"#utility.yul\":7834:7867   */\n      calldataload\n        /* \"#utility.yul\":7899:7947   */\n      tag_183\n        /* \"#utility.yul\":7941:7945   */\n      0x1f\n        /* \"#utility.yul\":7933:7939   */\n      dup10\n        /* \"#utility.yul\":7929:7946   */\n      and\n        /* \"#utility.yul\":7918:7927   */\n      dup3\n        /* \"#utility.yul\":7899:7947   */\n      tag_86\n      jump\t// in\n    tag_183:\n        /* \"#utility.yul\":7891:7897   */\n      dup4\n        /* \"#utility.yul\":7884:7948   */\n      sstore\n        /* \"#utility.yul\":7799:7962   */\n      pop\n        /* \"#utility.yul\":7776:7962   */\n    tag_182:\n        /* \"#utility.yul\":8008:8009   */\n      0x01\n        /* \"#utility.yul\":8004:8005   */\n      0x02\n        /* \"#utility.yul\":7996:8002   */\n      dup9\n        /* \"#utility.yul\":7992:8006   */\n      mul\n        /* \"#utility.yul\":7988:8010   */\n      add\n        /* \"#utility.yul\":7982:7986   */\n      dup9\n        /* \"#utility.yul\":7975:8011   */\n      sstore\n        /* \"#utility.yul\":7396:8021   */\n      pop\n      pop\n      pop\n        /* \"#utility.yul\":7359:8267   */\n    tag_174:\n      pop\n        /* \"#utility.yul\":6969:8273   */\n      pop\n      pop\n      pop\n        /* \"#utility.yul\":6870:8273   */\n      pop\n      pop\n      pop\n      jump\t// out\n        /* \"#utility.yul\":8279:8427   */\n    tag_88:\n        /* \"#utility.yul\":8381:8392   */\n      0x00\n        /* \"#utility.yul\":8418:8421   */\n      dup2\n        /* \"#utility.yul\":8403:8421   */\n      swap1\n      pop\n        /* \"#utility.yul\":8279:8427   */\n      swap3\n      swap2\n      pop\n      pop\n      jump\t// out\n        /* \"#utility.yul\":8457:9331   */\n    tag_89:\n        /* \"#utility.yul\":8560:8563   */\n      0x00\n        /* \"#utility.yul\":8597:8602   */\n      dup2\n        /* \"#utility.yul\":8591:8603   */\n      sload\n        /* \"#utility.yul\":8626:8662   */\n      tag_186\n        /* \"#utility.yul\":8652:8661   */\n      dup2\n        /* \"#utility.yul\":8626:8662   */\n      tag_30\n      jump\t// in\n    tag_186:\n        /* \"#utility.yul\":8678:8767   */\n      tag_187\n        /* \"#utility.yul\":8760:8766   */\n      dup2\n        /* \"#utility.yul\":8755:8758   */\n      dup7\n        /* \"#utility.yul\":8678:8767   */\n      tag_88\n      jump\t// in\n    tag_187:\n        /* \"#utility.yul\":8671:8767   */\n      swap5\n      pop\n        /* \"#utility.yul\":8798:8799   */\n      0x01\n        /* \"#utility.yul\":8787:8796   */\n      dup3\n        /* \"#utility.yul\":8783:8800   */\n      and\n        /* \"#utility.yul\":8814:8815   */\n      0x00\n        /* \"#utility.yul\":8809:8975   */\n      dup2\n      eq\n      tag_189\n      jumpi\n        /* \"#utility.yul\":8989:8990   */\n      0x01\n        /* \"#utility.yul\":8984:9325   */\n      dup2\n      eq\n      tag_190\n      jumpi\n        /* \"#utility.yul\":8776:9325   */\n      jump(tag_188)\n        /* \"#utility.yul\":8809:8975   */\n    tag_189:\n        /* \"#utility.yul\":8893:8897   */\n      0xff\n        /* \"#utility.yul\":8889:8898   */\n      not\n        /* \"#utility.yul\":8878:8887   */\n      dup4\n        /* \"#utility.yul\":8874:8899   */\n      and\n        /* \"#utility.yul\":8869:8872   */\n      dup7\n        /* \"#utility.yul\":8862:8900   */\n      mstore\n        /* \"#utility.yul\":8955:8961   */\n      dup2\n        /* \"#utility.yul\":8948:8962   */\n      iszero\n        /* \"#utility.yul\":8941:8963   */\n      iszero\n        /* \"#utility.yul\":8933:8939   */\n      dup3\n        /* \"#utility.yul\":8929:8964   */\n      mul\n        /* \"#utility.yul\":8924:8927   */\n      dup7\n        /* \"#utility.yul\":8920:8965   */\n      add\n        /* \"#utility.yul\":8913:8965   */\n      swap4\n      pop\n        /* \"#utility.yul\":8809:8975   */\n      jump(tag_188)\n        /* \"#utility.yul\":8984:9325   */\n    tag_190:\n        /* \"#utility.yul\":9051:9089   */\n      tag_191\n        /* \"#utility.yul\":9083:9088   */\n      dup6\n        /* \"#utility.yul\":9051:9089   */\n      tag_72\n      jump\t// in\n    tag_191:\n        /* \"#utility.yul\":9111:9112   */\n      0x00\n        /* \"#utility.yul\":9125:9279   */\n    tag_192:\n        /* \"#utility.yul\":9139:9145   */\n      dup4\n        /* \"#utility.yul\":9136:9137   */\n      dup2\n        /* \"#utility.yul\":9133:9146   */\n      lt\n        /* \"#utility.yul\":9125:9279   */\n      iszero\n      tag_194\n      jumpi\n        /* \"#utility.yul\":9213:9220   */\n      dup2\n        /* \"#utility.yul\":9207:9221   */\n      sload\n        /* \"#utility.yul\":9203:9204   */\n      dup2\n        /* \"#utility.yul\":9198:9201   */\n      dup10\n        /* \"#utility.yul\":9194:9205   */\n      add\n        /* \"#utility.yul\":9187:9222   */\n      mstore\n        /* \"#utility.yul\":9263:9264   */\n      0x01\n        /* \"#utility.yul\":9254:9261   */\n      dup3\n        /* \"#utility.yul\":9250:9265   */\n      add\n        /* \"#utility.yul\":9239:9265   */\n      swap2\n      pop\n        /* \"#utility.yul\":9161:9165   */\n      0x20\n        /* \"#utility.yul\":9158:9159   */\n      dup2\n        /* \"#utility.yul\":9154:9166   */\n      add\n        /* \"#utility.yul\":9149:9166   */\n      swap1\n      pop\n        /* \"#utility.yul\":9125:9279   */\n      jump(tag_192)\n    tag_194:\n        /* \"#utility.yul\":9308:9314   */\n      dup4\n        /* \"#utility.yul\":9303:9306   */\n      dup9\n        /* \"#utility.yul\":9299:9315   */\n      add\n        /* \"#utility.yul\":9292:9315   */\n      swap6\n      pop\n        /* \"#utility.yul\":8991:9325   */\n      pop\n      pop\n        /* \"#utility.yul\":8776:9325   */\n    tag_188:\n      pop\n        /* \"#utility.yul\":8564:9331   */\n      pop\n      pop\n        /* \"#utility.yul\":8457:9331   */\n      swap3\n      swap2\n      pop\n      pop\n      jump\t// out\n        /* \"#utility.yul\":9337:9488   */\n    tag_90:\n        /* \"#utility.yul\":9477:9480   */\n      0x2000000000000000000000000000000000000000000000000000000000000000\n        /* \"#utility.yul\":9473:9474   */\n      0x00\n        /* \"#utility.yul\":9465:9471   */\n      dup3\n        /* \"#utility.yul\":9461:9475   */\n      add\n        /* \"#utility.yul\":9454:9481   */\n      mstore\n        /* \"#utility.yul\":9337:9488   */\n      pop\n      jump\t// out\n        /* \"#utility.yul\":9494:9894   */\n    tag_91:\n        /* \"#utility.yul\":9654:9657   */\n      0x00\n        /* \"#utility.yul\":9675:9759   */\n      tag_197\n        /* \"#utility.yul\":9757:9758   */\n      0x01\n        /* \"#utility.yul\":9752:9755   */\n      dup4\n        /* \"#utility.yul\":9675:9759   */\n      tag_88\n      jump\t// in\n    tag_197:\n        /* \"#utility.yul\":9668:9759   */\n      swap2\n      pop\n        /* \"#utility.yul\":9768:9861   */\n      tag_198\n        /* \"#utility.yul\":9857:9860   */\n      dup3\n        /* \"#utility.yul\":9768:9861   */\n      tag_90\n      jump\t// in\n    tag_198:\n        /* \"#utility.yul\":9886:9887   */\n      0x01\n        /* \"#utility.yul\":9881:9884   */\n      dup3\n        /* \"#utility.yul\":9877:9888   */\n      add\n        /* \"#utility.yul\":9870:9888   */\n      swap1\n      pop\n        /* \"#utility.yul\":9494:9894   */\n      swap2\n      swap1\n      pop\n      jump\t// out\n        /* \"#utility.yul\":9900:10589   */\n    tag_40:\n        /* \"#utility.yul\":10175:10178   */\n      0x00\n        /* \"#utility.yul\":10197:10289   */\n      tag_200\n        /* \"#utility.yul\":10285:10288   */\n      dup3\n        /* \"#utility.yul\":10276:10282   */\n      dup6\n        /* \"#utility.yul\":10197:10289   */\n      tag_89\n      jump\t// in\n    tag_200:\n        /* \"#utility.yul\":10190:10289   */\n      swap2\n      pop\n        /* \"#utility.yul\":10306:10454   */\n      tag_201\n        /* \"#utility.yul\":10450:10453   */\n      dup3\n        /* \"#utility.yul\":10306:10454   */\n      tag_91\n      jump\t// in\n    tag_201:\n        /* \"#utility.yul\":10299:10454   */\n      swap2\n      pop\n        /* \"#utility.yul\":10471:10563   */\n      tag_202\n        /* \"#utility.yul\":10559:10562   */\n      dup3\n        /* \"#utility.yul\":10550:10556   */\n      dup5\n        /* \"#utility.yul\":10471:10563   */\n      tag_89\n      jump\t// in\n    tag_202:\n        /* \"#utility.yul\":10464:10563   */\n      swap2\n      pop\n        /* \"#utility.yul\":10580:10583   */\n      dup2\n        /* \"#utility.yul\":10573:10583   */\n      swap1\n      pop\n        /* \"#utility.yul\":9900:10589   */\n      swap4\n      swap3\n      pop\n      pop\n      pop\n      jump\t// out\n\n    auxdata: 0xa2646970667358221220f24d49be43d8aa9764a5584a19a90a9ea179abaad94454236ff56d0e29073fc764736f6c634300081f0033\n}\n",
				"bytecode": {
					"linkReferences": {},
					"object": "60806040526040518060400160405280600d81526020017f48656c6c6f2c20576f726c6421000000000000000000000000000000000000008152505f90816100479190610320565b506040518060400160405280600481526020017f4a6f686e000000000000000000000000000000000000000000000000000000008152506001908161008c9190610320565b506040518060400160405280600381526020017f446f650000000000000000000000000000000000000000000000000000000000815250600290816100d19190610320565b503480156100dd575f5ffd5b506103ef565b5f81519050919050565b7f4e487b71000000000000000000000000000000000000000000000000000000005f52604160045260245ffd5b7f4e487b71000000000000000000000000000000000000000000000000000000005f52602260045260245ffd5b5f600282049050600182168061015e57607f821691505b6020821081036101715761017061011a565b5b50919050565b5f819050815f5260205f209050919050565b5f6020601f8301049050919050565b5f82821b905092915050565b5f600883026101d37fffffffffffffffffffffffffffffffffffffffffffffffffffffffffffffffff82610198565b6101dd8683610198565b95508019841693508086168417925050509392505050565b5f819050919050565b5f819050919050565b5f61022161021c610217846101f5565b6101fe565b6101f5565b9050919050565b5f819050919050565b61023a83610207565b61024e61024682610228565b8484546101a4565b825550505050565b5f5f905090565b610265610256565b610270818484610231565b505050565b5b81811015610293576102885f8261025d565b600181019050610276565b5050565b601f8211156102d8576102a981610177565b6102b284610189565b810160208510156102c1578190505b6102d56102cd85610189565b830182610275565b50505b505050565b5f82821c905092915050565b5f6102f85f19846008026102dd565b1980831691505092915050565b5f61031083836102e9565b9150826002028217905092915050565b610329826100e3565b67ffffffffffffffff811115610342576103416100ed565b5b61034c8254610147565b610357828285610297565b5f60209050601f831160018114610388575f8415610376578287015190505b6103808582610305565b8655506103e7565b601f19841661039686610177565b5f5b828110156103bd57848901518255600182019150602085019450602081019050610398565b868310156103da57848901516103d6601f8916826102e9565b8355505b6001600288020188555050505b505050505050565b61090e806103fc5f395ff3fe608060405234801561000f575f5ffd5b5060043610610060575f3560e01c806306fdde031461006457806349da5de4146100825780638c1601861461009e578063acb34ce8146100bc578063b38fee92146100da578063ca4c3a41146100f8575b5f5ffd5b61006c610116565b60405161007991906103f8565b60405180910390f35b61009c60048036038101906100979190610481565b6101a2565b005b6100a66101b7565b6040516100b391906103f8565b60405180910390f35b6100c46101e2565b6040516100d191906103f8565b60405180910390f35b6100e261026d565b6040516100ef91906103f8565b60405180910390f35b6101006102f9565b60405161010d91906103f8565b60405180910390f35b60018054610123906104f9565b80601f016020809104026020016040519081016040528092919081815260200182805461014f906104f9565b801561019a5780601f106101715761010080835404028352916020019161019a565b820191905f5260205f20905b81548152906001019060200180831161017d57829003601f168201915b505050505081565b81815f91826101b2929190610709565b505050565b6060600160026040516020016101ce9291906108aa565b604051602081830303815290604052905090565b5f80546101ee906104f9565b80601f016020809104026020016040519081016040528092919081815260200182805461021a906104f9565b80156102655780601f1061023c57610100808354040283529160200191610265565b820191905f5260205f20905b81548152906001019060200180831161024857829003601f168201915b505050505081565b6002805461027a906104f9565b80601f01602080910402602001604051908101604052809291908181526020018280546102a6906104f9565b80156102f15780601f106102c8576101008083540402835291602001916102f1565b820191905f5260205f20905b8154815290600101906020018083116102d457829003601f168201915b505050505081565b60605f8054610307906104f9565b80601f0160208091040260200160405190810160405280929190818152602001828054610333906104f9565b801561037e5780601f106103555761010080835404028352916020019161037e565b820191905f5260205f20905b81548152906001019060200180831161036157829003601f168201915b5050505050905090565b5f81519050919050565b5f82825260208201905092915050565b8281835e5f83830152505050565b5f601f19601f8301169050919050565b5f6103ca82610388565b6103d48185610392565b93506103e48185602086016103a2565b6103ed816103b0565b840191505092915050565b5f6020820190508181035f83015261041081846103c0565b905092915050565b5f5ffd5b5f5ffd5b5f5ffd5b5f5ffd5b5f5ffd5b5f5f83601f84011261044157610440610420565b5b8235905067ffffffffffffffff81111561045e5761045d610424565b5b60208301915083600182028301111561047a57610479610428565b5b9250929050565b5f5f6020838503121561049757610496610418565b5b5f83013567ffffffffffffffff8111156104b4576104b361041c565b5b6104c08582860161042c565b92509250509250929050565b7f4e487b71000000000000000000000000000000000000000000000000000000005f52602260045260245ffd5b5f600282049050600182168061051057607f821691505b602082108103610523576105226104cc565b5b50919050565b5f82905092915050565b7f4e487b71000000000000000000000000000000000000000000000000000000005f52604160045260245ffd5b5f819050815f5260205f209050919050565b5f6020601f8301049050919050565b5f82821b905092915050565b5f600883026105bc7fffffffffffffffffffffffffffffffffffffffffffffffffffffffffffffffff82610581565b6105c68683610581565b95508019841693508086168417925050509392505050565b5f819050919050565b5f819050919050565b5f61060a610605610600846105de565b6105e7565b6105de565b9050919050565b5f819050919050565b610623836105f0565b61063761062f82610611565b84845461058d565b825550505050565b5f5f905090565b61064e61063f565b61065981848461061a565b505050565b5b8181101561067c576106715f82610646565b60018101905061065f565b5050565b601f8211156106c15761069281610560565b61069b84610572565b810160208510156106aa578190505b6106be6106b685610572565b83018261065e565b50505b505050565b5f82821c905092915050565b5f6106e15f19846008026106c6565b1980831691505092915050565b5f6106f983836106d2565b9150826002028217905092915050565b6107138383610529565b67ffffffffffffffff81111561072c5761072b610533565b5b61073682546104f9565b610741828285610680565b5f601f83116001811461076e575f841561075c578287013590505b61076685826106ee565b8655506107cd565b601f19841661077c86610560565b5f5b828110156107a35784890135825560018201915060208501945060208101905061077e565b868310156107c057848901356107bc601f8916826106d2565b8355505b6001600288020188555050505b50505050505050565b5f81905092915050565b5f81546107ec816104f9565b6107f681866107d6565b9450600182165f8114610810576001811461082557610857565b60ff1983168652811515820286019350610857565b61082e85610560565b5f5b8381101561084f57815481890152600182019150602081019050610830565b838801955050505b50505092915050565b7f20000000000000000000000000000000000000000000000000000000000000005f82015250565b5f6108946001836107d6565b915061089f82610860565b600182019050919050565b5f6108b582856107e0565b91506108c082610888565b91506108cc82846107e0565b9150819050939250505056fea2646970667358221220f24d49be43d8aa9764a5584a19a90a9ea179abaad94454236ff56d0e29073fc764736f6c634300081f0033",
					"opcodes": "PUSH1 0x80 PUSH1 0x40 MSTORE PUSH1 0x40 MLOAD DUP1 PUSH1 0x40 ADD PUSH1 0x40 MSTORE DUP1 PUSH1 0xD DUP2 MSTORE PUSH1 0x20 ADD PUSH32 0x48656C6C6F2C20576F726C642100000000000000000000000000000000000000 DUP2 MSTORE POP PUSH0 SWAP1 DUP2 PUSH2 0x47 SWAP2 SWAP1 PUSH2 0x320 JUMP JUMPDEST POP PUSH1 0x40 MLOAD DUP1 PUSH1 0x40 ADD PUSH1 0x40 MSTORE DUP1 PUSH1 0x4 DUP2 MSTORE PUSH1 0x20 ADD PUSH32 0x4A6F686E00000000000000000000000000000000000000000000000000000000 DUP2 MSTORE POP PUSH1 0x1 SWAP1 DUP2 PUSH2 0x8C SWAP2 SWAP1 PUSH2 0x320 JUMP JUMPDEST POP PUSH1 0x40 MLOAD DUP1 PUSH1 0x40 ADD PUSH1 0x40 MSTORE DUP1 PUSH1 0x3 DUP2 MSTORE PUSH1 0x20 ADD PUSH32 0x446F650000000000000000000000000000000000000000000000000000000000 DUP2 MSTORE POP PUSH1 0x2 SWAP1 DUP2 PUSH2 0xD1 SWAP2 SWAP1 PUSH2 0x320 JUMP JUMPDEST POP CALLVALUE DUP1 ISZERO PUSH2 0xDD JUMPI PUSH0 PUSH0 REVERT JUMPDEST POP PUSH2 0x3EF JUMP JUMPDEST PUSH0 DUP2 MLOAD SWAP1 POP SWAP2 SWAP1 POP JUMP JUMPDEST PUSH32 0x4E487B7100000000000000000000000000000000000000000000000000000000 PUSH0 MSTORE PUSH1 0x41 PUSH1 0x4 MSTORE PUSH1 0x24 PUSH0 REVERT JUMPDEST PUSH32 0x4E487B7100000000000000000000000000000000000000000000000000000000 PUSH0 MSTORE PUSH1 0x22 PUSH1 0x4 MSTORE PUSH1 0x24 PUSH0 REVERT JUMPDEST PUSH0 PUSH1 0x2 DUP3 DIV SWAP1 POP PUSH1 0x1 DUP3 AND DUP1 PUSH2 0x15E JUMPI PUSH1 0x7F DUP3 AND SWAP2 POP JUMPDEST PUSH1 0x20 DUP3 LT DUP2 SUB PUSH2 0x171 JUMPI PUSH2 0x170 PUSH2 0x11A JUMP JUMPDEST JUMPDEST POP SWAP2 SWAP1 POP JUMP JUMPDEST PUSH0 DUP2 SWAP1 POP DUP2 PUSH0 MSTORE PUSH1 0x20 PUSH0 KECCAK256 SWAP1 POP SWAP2 SWAP1 POP JUMP JUMPDEST PUSH0 PUSH1 0x20 PUSH1 0x1F DUP4 ADD DIV SWAP1 POP SWAP2 SWAP1 POP JUMP JUMPDEST PUSH0 DUP3 DUP3 SHL SWAP1 POP SWAP3 SWAP2 POP POP JUMP JUMPDEST PUSH0 PUSH1 0x8 DUP4 MUL PUSH2 0x1D3 PUSH32 0xFFFFFFFFFFFFFFFFFFFFFFFFFFFFFFFFFFFFFFFFFFFFFFFFFFFFFFFFFFFFFFFF DUP3 PUSH2 0x198 JUMP JUMPDEST PUSH2 0x1DD DUP7 DUP4 PUSH2 0x198 JUMP JUMPDEST SWAP6 POP DUP1 NOT DUP5 AND SWAP4 POP DUP1 DUP7 AND DUP5 OR SWAP3 POP POP POP SWAP4 SWAP3 POP POP POP JUMP JUMPDEST PUSH0 DUP2 SWAP1 POP SWAP2 SWAP1 POP JUMP JUMPDEST PUSH0 DUP2 SWAP1 POP SWAP2 SWAP1 POP JUMP JUMPDEST PUSH0 PUSH2 0x221 PUSH2 0x21C PUSH2 0x217 DUP5 PUSH2 0x1F5 JUMP JUMPDEST PUSH2 0x1FE JUMP JUMPDEST PUSH2 0x1F5 JUMP JUMPDEST SWAP1 POP SWAP2 SWAP1 POP JUMP JUMPDEST PUSH0 DUP2 SWAP1 POP SWAP2 SWAP1 POP JUMP JUMPDEST PUSH2 0x23A DUP4 PUSH2 0x207 JUMP JUMPDEST PUSH2 0x24E PUSH2 0x246 DUP3 PUSH2 0x228 JUMP JUMPDEST DUP5 DUP5 SLOAD PUSH2 0x1A4 JUMP JUMPDEST DUP3 SSTORE POP POP POP POP JUMP JUMPDEST PUSH0 PUSH0 SWAP1 POP SWAP1 JUMP JUMPDEST PUSH2 0x265 PUSH2 0x256 JUMP JUMPDEST PUSH2 0x270 DUP2 DUP5 DUP5 PUSH2 0x231 JUMP JUMPDEST POP POP POP JUMP JUMPDEST JUMPDEST DUP2 DUP2 LT ISZERO PUSH2 0x293 JUMPI PUSH2 0x288 PUSH0 DUP3 PUSH2 0x25D JUMP JUMPDEST PUSH1 0x1 DUP2 ADD SWAP1 POP PUSH2 0x276 JUMP JUMPDEST POP POP JUMP JUMPDEST PUSH1 0x1F DUP3 GT ISZERO PUSH2 0x2D8 JUMPI PUSH2 0x2A9 DUP2 PUSH2 0x177 JUMP JUMPDEST PUSH2 0x2B2 DUP5 PUSH2 0x189 JUMP JUMPDEST DUP2 ADD PUSH1 0x20 DUP6 LT ISZERO PUSH2 0x2C1 JUMPI DUP2 SWAP1 POP JUMPDEST PUSH2 0x2D5 PUSH2 0x2CD DUP6 PUSH2 0x189 JUMP JUMPDEST DUP4 ADD DUP3 PUSH2 0x275 JUMP JUMPDEST POP POP JUMPDEST POP POP POP JUMP JUMPDEST PUSH0 DUP3 DUP3 SHR SWAP1 POP SWAP3 SWAP2 POP POP JUMP JUMPDEST PUSH0 PUSH2 0x2F8 PUSH0 NOT DUP5 PUSH1 0x8 MUL PUSH2 0x2DD JUMP JUMPDEST NOT DUP1 DUP4 AND SWAP2 POP POP SWAP3 SWAP2 POP POP JUMP JUMPDEST PUSH0 PUSH2 0x310 DUP4 DUP4 PUSH2 0x2E9 JUMP JUMPDEST SWAP2 POP DUP3 PUSH1 0x2 MUL DUP3 OR SWAP1 POP SWAP3 SWAP2 POP POP JUMP JUMPDEST PUSH2 0x329 DUP3 PUSH2 0xE3 JUMP JUMPDEST PUSH8 0xFFFFFFFFFFFFFFFF DUP2 GT ISZERO PUSH2 0x342 JUMPI PUSH2 0x341 PUSH2 0xED JUMP JUMPDEST JUMPDEST PUSH2 0x34C DUP3 SLOAD PUSH2 0x147 JUMP JUMPDEST PUSH2 0x357 DUP3 DUP3 DUP6 PUSH2 0x297 JUMP JUMPDEST PUSH0 PUSH1 0x20 SWAP1 POP PUSH1 0x1F DUP4 GT PUSH1 0x1 DUP2 EQ PUSH2 0x388 JUMPI PUSH0 DUP5 ISZERO PUSH2 0x376 JUMPI DUP3 DUP8 ADD MLOAD SWAP1 POP JUMPDEST PUSH2 0x380 DUP6 DUP3 PUSH2 0x305 JUMP JUMPDEST DUP7 SSTORE POP PUSH2 0x3E7 JUMP JUMPDEST PUSH1 0x1F NOT DUP5 AND PUSH2 0x396 DUP7 PUSH2 0x177 JUMP JUMPDEST PUSH0 JUMPDEST DUP3 DUP2 LT ISZERO PUSH2 0x3BD JUMPI DUP5 DUP10 ADD MLOAD DUP3 SSTORE PUSH1 0x1 DUP3 ADD SWAP2 POP PUSH1 0x20 DUP6 ADD SWAP5 POP PUSH1 0x20 DUP2 ADD SWAP1 POP PUSH2 0x398 JUMP JUMPDEST DUP7 DUP4 LT ISZERO PUSH2 0x3DA JUMPI DUP5 DUP10 ADD MLOAD PUSH2 0x3D6 PUSH1 0x1F DUP10 AND DUP3 PUSH2 0x2E9 JUMP JUMPDEST DUP4 SSTORE POP JUMPDEST PUSH1 0x1 PUSH1 0x2 DUP9 MUL ADD DUP9 SSTORE POP POP POP JUMPDEST POP POP POP POP POP POP JUMP JUMPDEST PUSH2 0x90E DUP1 PUSH2 0x3FC PUSH0 CODECOPY PUSH0 RETURN INVALID PUSH1 0x80 PUSH1 0x40 MSTORE CALLVALUE DUP1 ISZERO PUSH2 0xF JUMPI PUSH0 PUSH0 REVERT JUMPDEST POP PUSH1 0x4 CALLDATASIZE LT PUSH2 0x60 JUMPI PUSH0 CALLDATALOAD PUSH1 0xE0 SHR DUP1 PUSH4 0x6FDDE03 EQ PUSH2 0x64 JUMPI DUP1 PUSH4 0x49DA5DE4 EQ PUSH2 0x82 JUMPI DUP1 PUSH4 0x8C160186 EQ PUSH2 0x9E JUMPI DUP1 PUSH4 0xACB34CE8 EQ PUSH2 0xBC JUMPI DUP1 PUSH4 0xB38FEE92 EQ PUSH2 0xDA JUMPI DUP1 PUSH4 0xCA4C3A41 EQ PUSH2 0xF8 JUMPI JUMPDEST PUSH0 PUSH0 REVERT JUMPDEST PUSH2 0x6C PUSH2 0x116 JUMP JUMPDEST PUSH1 0x40 MLOAD PUSH2 0x79 SWAP2 SWAP1 PUSH2 0x3F8 JUMP JUMPDEST PUSH1 0x40 MLOAD DUP1 SWAP2 SUB SWAP1 RETURN JUMPDEST PUSH2 0x9C PUSH1 0x4 DUP1 CALLDATASIZE SUB DUP2 ADD SWAP1 PUSH2 0x97 SWAP2 SWAP1 PUSH2 0x481 JUMP JUMPDEST PUSH2 0x1A2 JUMP JUMPDEST STOP JUMPDEST PUSH2 0xA6 PUSH2 0x1B7 JUMP JUMPDEST PUSH1 0x40 MLOAD PUSH2 0xB3 SWAP2 SWAP1 PUSH2 0x3F8 JUMP JUMPDEST PUSH1 0x40 MLOAD DUP1 SWAP2 SUB SWAP1 RETURN JUMPDEST PUSH2 0xC4 PUSH2 0x1E2 JUMP JUMPDEST PUSH1 0x40 MLOAD PUSH2 0xD1 SWAP2 SWAP1 PUSH2 0x3F8 JUMP JUMPDEST PUSH1 0x40 MLOAD DUP1 SWAP2 SUB SWAP1 RETURN JUMPDEST PUSH2 0xE2 PUSH2 0x26D JUMP JUMPDEST PUSH1 0x40 MLOAD PUSH2 0xEF SWAP2 SWAP1 PUSH2 0x3F8 JUMP JUMPDEST PUSH1 0x40 MLOAD DUP1 SWAP2 SUB SWAP1 RETURN JUMPDEST PUSH2 0x100 PUSH2 0x2F9 JUMP JUMPDEST PUSH1 0x40 MLOAD PUSH2 0x10D SWAP2 SWAP1 PUSH2 0x3F8 JUMP JUMPDEST PUSH1 0x40 MLOAD DUP1 SWAP2 SUB SWAP1 RETURN JUMPDEST PUSH1 0x1 DUP1 SLOAD PUSH2 0x123 SWAP1 PUSH2 0x4F9 JUMP JUMPDEST DUP1 PUSH1 0x1F ADD PUSH1 0x20 DUP1 SWAP2 DIV MUL PUSH1 0x20 ADD PUSH1 0x40 MLOAD SWAP1 DUP2 ADD PUSH1 0x40 MSTORE DUP1 SWAP3 SWAP2 SWAP1 DUP2 DUP2 MSTORE PUSH1 0x20 ADD DUP3 DUP1 SLOAD PUSH2 0x14F SWAP1 PUSH2 0x4F9 JUMP JUMPDEST DUP1 ISZERO PUSH2 0x19A JUMPI DUP1 PUSH1 0x1F LT PUSH2 0x171 JUMPI PUSH2 0x100 DUP1 DUP4 SLOAD DIV MUL DUP4 MSTORE SWAP2 PUSH1 0x20 ADD SWAP2 PUSH2 0x19A JUMP JUMPDEST DUP3 ADD SWAP2 SWAP1 PUSH0 MSTORE PUSH1 0x20 PUSH0 KECCAK256 SWAP1 JUMPDEST DUP2 SLOAD DUP2 MSTORE SWAP1 PUSH1 0x1 ADD SWAP1 PUSH1 0x20 ADD DUP1 DUP4 GT PUSH2 0x17D JUMPI DUP3 SWAP1 SUB PUSH1 0x1F AND DUP3 ADD SWAP2 JUMPDEST POP POP POP POP POP DUP2 JUMP JUMPDEST DUP2 DUP2 PUSH0 SWAP2 DUP3 PUSH2 0x1B2 SWAP3 SWAP2 SWAP1 PUSH2 0x709 JUMP JUMPDEST POP POP POP JUMP JUMPDEST PUSH1 0x60 PUSH1 0x1 PUSH1 0x2 PUSH1 0x40 MLOAD PUSH1 0x20 ADD PUSH2 0x1CE SWAP3 SWAP2 SWAP1 PUSH2 0x8AA JUMP JUMPDEST PUSH1 0x40 MLOAD PUSH1 0x20 DUP2 DUP4 SUB SUB DUP2 MSTORE SWAP1 PUSH1 0x40 MSTORE SWAP1 POP SWAP1 JUMP JUMPDEST PUSH0 DUP1 SLOAD PUSH2 0x1EE SWAP1 PUSH2 0x4F9 JUMP JUMPDEST DUP1 PUSH1 0x1F ADD PUSH1 0x20 DUP1 SWAP2 DIV MUL PUSH1 0x20 ADD PUSH1 0x40 MLOAD SWAP1 DUP2 ADD PUSH1 0x40 MSTORE DUP1 SWAP3 SWAP2 SWAP1 DUP2 DUP2 MSTORE PUSH1 0x20 ADD DUP3 DUP1 SLOAD PUSH2 0x21A SWAP1 PUSH2 0x4F9 JUMP JUMPDEST DUP1 ISZERO PUSH2 0x265 JUMPI DUP1 PUSH1 0x1F LT PUSH2 0x23C JUMPI PUSH2 0x100 DUP1 DUP4 SLOAD DIV MUL DUP4 MSTORE SWAP2 PUSH1 0x20 ADD SWAP2 PUSH2 0x265 JUMP JUMPDEST DUP3 ADD SWAP2 SWAP1 PUSH0 MSTORE PUSH1 0x20 PUSH0 KECCAK256 SWAP1 JUMPDEST DUP2 SLOAD DUP2 MSTORE SWAP1 PUSH1 0x1 ADD SWAP1 PUSH1 0x20 ADD DUP1 DUP4 GT PUSH2 0x248 JUMPI DUP3 SWAP1 SUB PUSH1 0x1F AND DUP3 ADD SWAP2 JUMPDEST POP POP POP POP POP DUP2 JUMP JUMPDEST PUSH1 0x2 DUP1 SLOAD PUSH2 0x27A SWAP1 PUSH2 0x4F9 JUMP JUMPDEST DUP1 PUSH1 0x1F ADD PUSH1 0x20 DUP1 SWAP2 DIV MUL PUSH1 0x20 ADD PUSH1 0x40 MLOAD SWAP1 DUP2 ADD PUSH1 0x40 MSTORE DUP1 SWAP3 SWAP2 SWAP1 DUP2 DUP2 MSTORE PUSH1 0x20 ADD DUP3 DUP1 SLOAD PUSH2 0x2A6 SWAP1 PUSH2 0x4F9 JUMP JUMPDEST DUP1 ISZERO PUSH2 0x2F1 JUMPI DUP1 PUSH1 0x1F LT PUSH2 0x2C8 JUMPI PUSH2 0x100 DUP1 DUP4 SLOAD DIV MUL DUP4 MSTORE SWAP2 PUSH1 0x20 ADD SWAP2 PUSH2 0x2F1 JUMP JUMPDEST DUP3 ADD SWAP2 SWAP1 PUSH0 MSTORE PUSH1 0x20 PUSH0 KECCAK256 SWAP1 JUMPDEST DUP2 SLOAD DUP2 MSTORE SWAP1 PUSH1 0x1 ADD SWAP1 PUSH1 0x20 ADD DUP1 DUP4 GT PUSH2 0x2D4 JUMPI DUP3 SWAP1 SUB PUSH1 0x1F AND DUP3 ADD SWAP2 JUMPDEST POP POP POP POP POP DUP2 JUMP JUMPDEST PUSH1 0x60 PUSH0 DUP1 SLOAD PUSH2 0x307 SWAP1 PUSH2 0x4F9 JUMP JUMPDEST DUP1 PUSH1 0x1F ADD PUSH1 0x20 DUP1 SWAP2 DIV MUL PUSH1 0x20 ADD PUSH1 0x40 MLOAD SWAP1 DUP2 ADD PUSH1 0x40 MSTORE DUP1 SWAP3 SWAP2 SWAP1 DUP2 DUP2 MSTORE PUSH1 0x20 ADD DUP3 DUP1 SLOAD PUSH2 0x333 SWAP1 PUSH2 0x4F9 JUMP JUMPDEST DUP1 ISZERO PUSH2 0x37E JUMPI DUP1 PUSH1 0x1F LT PUSH2 0x355 JUMPI PUSH2 0x100 DUP1 DUP4 SLOAD DIV MUL DUP4 MSTORE SWAP2 PUSH1 0x20 ADD SWAP2 PUSH2 0x37E JUMP JUMPDEST DUP3 ADD SWAP2 SWAP1 PUSH0 MSTORE PUSH1 0x20 PUSH0 KECCAK256 SWAP1 JUMPDEST DUP2 SLOAD DUP2 MSTORE SWAP1 PUSH1 0x1 ADD SWAP1 PUSH1 0x20 ADD DUP1 DUP4 GT PUSH2 0x361 JUMPI DUP3 SWAP1 SUB PUSH1 0x1F AND DUP3 ADD SWAP2 JUMPDEST POP POP POP POP POP SWAP1 POP SWAP1 JUMP JUMPDEST PUSH0 DUP2 MLOAD SWAP1 POP SWAP2 SWAP1 POP JUMP JUMPDEST PUSH0 DUP3 DUP3 MSTORE PUSH1 0x20 DUP3 ADD SWAP1 POP SWAP3 SWAP2 POP POP JUMP JUMPDEST DUP3 DUP2 DUP4 MCOPY PUSH0 DUP4 DUP4 ADD MSTORE POP POP POP JUMP JUMPDEST PUSH0 PUSH1 0x1F NOT PUSH1 0x1F DUP4 ADD AND SWAP1 POP SWAP2 SWAP1 POP JUMP JUMPDEST PUSH0 PUSH2 0x3CA DUP3 PUSH2 0x388 JUMP JUMPDEST PUSH2 0x3D4 DUP2 DUP6 PUSH2 0x392 JUMP JUMPDEST SWAP4 POP PUSH2 0x3E4 DUP2 DUP6 PUSH1 0x20 DUP7 ADD PUSH2 0x3A2 JUMP JUMPDEST PUSH2 0x3ED DUP2 PUSH2 0x3B0 JUMP JUMPDEST DUP5 ADD SWAP2 POP POP SWAP3 SWAP2 POP POP JUMP JUMPDEST PUSH0 PUSH1 0x20 DUP3 ADD SWAP1 POP DUP2 DUP2 SUB PUSH0 DUP4 ADD MSTORE PUSH2 0x410 DUP2 DUP5 PUSH2 0x3C0 JUMP JUMPDEST SWAP1 POP SWAP3 SWAP2 POP POP JUMP JUMPDEST PUSH0 PUSH0 REVERT JUMPDEST PUSH0 PUSH0 REVERT JUMPDEST PUSH0 PUSH0 REVERT JUMPDEST PUSH0 PUSH0 REVERT JUMPDEST PUSH0 PUSH0 REVERT JUMPDEST PUSH0 PUSH0 DUP4 PUSH1 0x1F DUP5 ADD SLT PUSH2 0x441 JUMPI PUSH2 0x440 PUSH2 0x420 JUMP JUMPDEST JUMPDEST DUP3 CALLDATALOAD SWAP1 POP PUSH8 0xFFFFFFFFFFFFFFFF DUP2 GT ISZERO PUSH2 0x45E JUMPI PUSH2 0x45D PUSH2 0x424 JUMP JUMPDEST JUMPDEST PUSH1 0x20 DUP4 ADD SWAP2 POP DUP4 PUSH1 0x1 DUP3 MUL DUP4 ADD GT ISZERO PUSH2 0x47A JUMPI PUSH2 0x479 PUSH2 0x428 JUMP JUMPDEST JUMPDEST SWAP3 POP SWAP3 SWAP1 POP JUMP JUMPDEST PUSH0 PUSH0 PUSH1 0x20 DUP4 DUP6 SUB SLT ISZERO PUSH2 0x497 JUMPI PUSH2 0x496 PUSH2 0x418 JUMP JUMPDEST JUMPDEST PUSH0 DUP4 ADD CALLDATALOAD PUSH8 0xFFFFFFFFFFFFFFFF DUP2 GT ISZERO PUSH2 0x4B4 JUMPI PUSH2 0x4B3 PUSH2 0x41C JUMP JUMPDEST JUMPDEST PUSH2 0x4C0 DUP6 DUP3 DUP7 ADD PUSH2 0x42C JUMP JUMPDEST SWAP3 POP SWAP3 POP POP SWAP3 POP SWAP3 SWAP1 POP JUMP JUMPDEST PUSH32 0x4E487B7100000000000000000000000000000000000000000000000000000000 PUSH0 MSTORE PUSH1 0x22 PUSH1 0x4 MSTORE PUSH1 0x24 PUSH0 REVERT JUMPDEST PUSH0 PUSH1 0x2 DUP3 DIV SWAP1 POP PUSH1 0x1 DUP3 AND DUP1 PUSH2 0x510 JUMPI PUSH1 0x7F DUP3 AND SWAP2 POP JUMPDEST PUSH1 0x20 DUP3 LT DUP2 SUB PUSH2 0x523 JUMPI PUSH2 0x522 PUSH2 0x4CC JUMP JUMPDEST JUMPDEST POP SWAP2 SWAP1 POP JUMP JUMPDEST PUSH0 DUP3 SWAP1 POP SWAP3 SWAP2 POP POP JUMP JUMPDEST PUSH32 0x4E487B7100000000000000000000000000000000000000000000000000000000 PUSH0 MSTORE PUSH1 0x41 PUSH1 0x4 MSTORE PUSH1 0x24 PUSH0 REVERT JUMPDEST PUSH0 DUP2 SWAP1 POP DUP2 PUSH0 MSTORE PUSH1 0x20 PUSH0 KECCAK256 SWAP1 POP SWAP2 SWAP1 POP JUMP JUMPDEST PUSH0 PUSH1 0x20 PUSH1 0x1F DUP4 ADD DIV SWAP1 POP SWAP2 SWAP1 POP JUMP JUMPDEST PUSH0 DUP3 DUP3 SHL SWAP1 POP SWAP3 SWAP2 POP POP JUMP JUMPDEST PUSH0 PUSH1 0x8 DUP4 MUL PUSH2 0x5BC PUSH32 0xFFFFFFFFFFFFFFFFFFFFFFFFFFFFFFFFFFFFFFFFFFFFFFFFFFFFFFFFFFFFFFFF DUP3 PUSH2 0x581 JUMP JUMPDEST PUSH2 0x5C6 DUP7 DUP4 PUSH2 0x581 JUMP JUMPDEST SWAP6 POP DUP1 NOT DUP5 AND SWAP4 POP DUP1 DUP7 AND DUP5 OR SWAP3 POP POP POP SWAP4 SWAP3 POP POP POP JUMP JUMPDEST PUSH0 DUP2 SWAP1 POP SWAP2 SWAP1 POP JUMP JUMPDEST PUSH0 DUP2 SWAP1 POP SWAP2 SWAP1 POP JUMP JUMPDEST PUSH0 PUSH2 0x60A PUSH2 0x605 PUSH2 0x600 DUP5 PUSH2 0x5DE JUMP JUMPDEST PUSH2 0x5E7 JUMP JUMPDEST PUSH2 0x5DE JUMP JUMPDEST SWAP1 POP SWAP2 SWAP1 POP JUMP JUMPDEST PUSH0 DUP2 SWAP1 POP SWAP2 SWAP1 POP JUMP JUMPDEST PUSH2 0x623 DUP4 PUSH2 0x5F0 JUMP JUMPDEST PUSH2 0x637 PUSH2 0x62F DUP3 PUSH2 0x611 JUMP JUMPDEST DUP5 DUP5 SLOAD PUSH2 0x58D JUMP JUMPDEST DUP3 SSTORE POP POP POP POP JUMP JUMPDEST PUSH0 PUSH0 SWAP1 POP SWAP1 JUMP JUMPDEST PUSH2 0x64E PUSH2 0x63F JUMP JUMPDEST PUSH2 0x659 DUP2 DUP5 DUP5 PUSH2 0x61A JUMP JUMPDEST POP POP POP JUMP JUMPDEST JUMPDEST DUP2 DUP2 LT ISZERO PUSH2 0x67C JUMPI PUSH2 0x671 PUSH0 DUP3 PUSH2 0x646 JUMP JUMPDEST PUSH1 0x1 DUP2 ADD SWAP1 POP PUSH2 0x65F JUMP JUMPDEST POP POP JUMP JUMPDEST PUSH1 0x1F DUP3 GT ISZERO PUSH2 0x6C1 JUMPI PUSH2 0x692 DUP2 PUSH2 0x560 JUMP JUMPDEST PUSH2 0x69B DUP5 PUSH2 0x572 JUMP JUMPDEST DUP2 ADD PUSH1 0x20 DUP6 LT ISZERO PUSH2 0x6AA JUMPI DUP2 SWAP1 POP JUMPDEST PUSH2 0x6BE PUSH2 0x6B6 DUP6 PUSH2 0x572 JUMP JUMPDEST DUP4 ADD DUP3 PUSH2 0x65E JUMP JUMPDEST POP POP JUMPDEST POP POP POP JUMP JUMPDEST PUSH0 DUP3 DUP3 SHR SWAP1 POP SWAP3 SWAP2 POP POP JUMP JUMPDEST PUSH0 PUSH2 0x6E1 PUSH0 NOT DUP5 PUSH1 0x8 MUL PUSH2 0x6C6 JUMP JUMPDEST NOT DUP1 DUP4 AND SWAP2 POP POP SWAP3 SWAP2 POP POP JUMP JUMPDEST PUSH0 PUSH2 0x6F9 DUP4 DUP4 PUSH2 0x6D2 JUMP JUMPDEST SWAP2 POP DUP3 PUSH1 0x2 MUL DUP3 OR SWAP1 POP SWAP3 SWAP2 POP POP JUMP JUMPDEST PUSH2 0x713 DUP4 DUP4 PUSH2 0x529 JUMP JUMPDEST PUSH8 0xFFFFFFFFFFFFFFFF DUP2 GT ISZERO PUSH2 0x72C JUMPI PUSH2 0x72B PUSH2 0x533 JUMP JUMPDEST JUMPDEST PUSH2 0x736 DUP3 SLOAD PUSH2 0x4F9 JUMP JUMPDEST PUSH2 0x741 DUP3 DUP3 DUP6 PUSH2 0x680 JUMP JUMPDEST PUSH0 PUSH1 0x1F DUP4 GT PUSH1 0x1 DUP2 EQ PUSH2 0x76E JUMPI PUSH0 DUP5 ISZERO PUSH2 0x75C JUMPI DUP3 DUP8 ADD CALLDATALOAD SWAP1 POP JUMPDEST PUSH2 0x766 DUP6 DUP3 PUSH2 0x6EE JUMP JUMPDEST DUP7 SSTORE POP PUSH2 0x7CD JUMP JUMPDEST PUSH1 0x1F NOT DUP5 AND PUSH2 0x77C DUP7 PUSH2 0x560 JUMP JUMPDEST PUSH0 JUMPDEST DUP3 DUP2 LT ISZERO PUSH2 0x7A3 JUMPI DUP5 DUP10 ADD CALLDATALOAD DUP3 SSTORE PUSH1 0x1 DUP3 ADD SWAP2 POP PUSH1 0x20 DUP6 ADD SWAP5 POP PUSH1 0x20 DUP2 ADD SWAP1 POP PUSH2 0x77E JUMP JUMPDEST DUP7 DUP4 LT ISZERO PUSH2 0x7C0 JUMPI DUP5 DUP10 ADD CALLDATALOAD PUSH2 0x7BC PUSH1 0x1F DUP10 AND DUP3 PUSH2 0x6D2 JUMP JUMPDEST DUP4 SSTORE POP JUMPDEST PUSH1 0x1 PUSH1 0x2 DUP9 MUL ADD DUP9 SSTORE POP POP POP JUMPDEST POP POP POP POP POP POP POP JUMP JUMPDEST PUSH0 DUP2 SWAP1 POP SWAP3 SWAP2 POP POP JUMP JUMPDEST PUSH0 DUP2 SLOAD PUSH2 0x7EC DUP2 PUSH2 0x4F9 JUMP JUMPDEST PUSH2 0x7F6 DUP2 DUP7 PUSH2 0x7D6 JUMP JUMPDEST SWAP5 POP PUSH1 0x1 DUP3 AND PUSH0 DUP2 EQ PUSH2 0x810 JUMPI PUSH1 0x1 DUP2 EQ PUSH2 0x825 JUMPI PUSH2 0x857 JUMP JUMPDEST PUSH1 0xFF NOT DUP4 AND DUP7 MSTORE DUP2 ISZERO ISZERO DUP3 MUL DUP7 ADD SWAP4 POP PUSH2 0x857 JUMP JUMPDEST PUSH2 0x82E DUP6 PUSH2 0x560 JUMP JUMPDEST PUSH0 JUMPDEST DUP4 DUP2 LT ISZERO PUSH2 0x84F JUMPI DUP2 SLOAD DUP2 DUP10 ADD MSTORE PUSH1 0x1 DUP3 ADD SWAP2 POP PUSH1 0x20 DUP2 ADD SWAP1 POP PUSH2 0x830 JUMP JUMPDEST DUP4 DUP9 ADD SWAP6 POP POP POP JUMPDEST POP POP POP SWAP3 SWAP2 POP POP JUMP JUMPDEST PUSH32 0x2000000000000000000000000000000000000000000000000000000000000000 PUSH0 DUP3 ADD MSTORE POP JUMP JUMPDEST PUSH0 PUSH2 0x894 PUSH1 0x1 DUP4 PUSH2 0x7D6 JUMP JUMPDEST SWAP2 POP PUSH2 0x89F DUP3 PUSH2 0x860 JUMP JUMPDEST PUSH1 0x1 DUP3 ADD SWAP1 POP SWAP2 SWAP1 POP JUMP JUMPDEST PUSH0 PUSH2 0x8B5 DUP3 DUP6 PUSH2 0x7E0 JUMP JUMPDEST SWAP2 POP PUSH2 0x8C0 DUP3 PUSH2 0x888 JUMP JUMPDEST SWAP2 POP PUSH2 0x8CC DUP3 DUP5 PUSH2 0x7E0 JUMP JUMPDEST SWAP2 POP DUP2 SWAP1 POP SWAP4 SWAP3 POP POP POP JUMP INVALID LOG2 PUSH5 0x6970667358 0x22 SLT KECCAK256 CALLCODE 0x4D BLOBHASH 0xBE NUMBER 0xD8 0xAA SWAP8 PUSH5 0xA5584A19A9 EXP SWAP15 LOG1 PUSH26 0xABAAD94454236FF56D0E29073FC764736F6C634300081F003300 "
				},
				"gasEstimates": {
					"creation": {
						"codeDepositCost": "463600",
						"executionCost": "infinite",
						"totalCost": "infinite"
					},
					"external": {
						"getFullName()": "infinite",
						"getGreetings()": "infinite",
						"greetings()": "infinite",
						"name()": "infinite",
						"setGreetings(string)": "infinite",
						"surname()": "infinite"
					}
				},
				"methodIdentifiers": {
					"getFullName()": "8c160186",
					"getGreetings()": "ca4c3a41",
					"greetings()": "acb34ce8",
					"name()": "06fdde03",
					"setGreetings(string)": "49da5de4",
					"surname()": "b38fee92"
				}
			},
			"storageLayout": {
				"storage": [
					{
						"astId": 4,
						"contract": "base.sol:Strings",
						"label": "greetings",
						"offset": 0,
						"slot": "0",
						"type": "t_string_storage"
					},
					{
						"astId": 7,
						"contract": "base.sol:Strings",
						"label": "name",
						"offset": 0,
						"slot": "1",
						"type": "t_string_storage"
					},
					{
						"astId": 10,
						"contract": "base.sol:Strings",
						"label": "surname",
						"offset": 0,
						"slot": "2",
						"type": "t_string_storage"
					}
				],
				"types": {
					"t_string_storage": {
						"encoding": "bytes",
						"label": "string",
						"numberOfBytes": "32"
					}
				}
			},
			"userdoc": {
				"kind": "user",
				"methods": {},
				"version": 1
			}
		}
	}
}