{
	"data": {
		"bytecode": {
			"linkReferences": {},
			"object": "60806040526107ea5f557fffffffffffffffffffffffffffffffffffffffffffffffffffffffffffffff006001553480156037575f5ffd5b506101a0806100455f395ff3fe608060405234801561000f575f5ffd5b506004361061003f575f3560e01c80630b5a006b146100435780638bb5d9c314610061578063df9867251461007d575b5f5ffd5b61004b61009b565b60405161005891906100c7565b60405180910390f35b61007b6004803603810190610076919061010e565b6100a0565b005b6100856100a9565b6040516100929190610151565b60405180910390f35b5f5481565b805f8190555050565b60015481565b5f819050919050565b6100c1816100af565b82525050565b5f6020820190506100da5f8301846100b8565b92915050565b5f5ffd5b6100ed816100af565b81146100f7575f5ffd5b50565b5f81359050610108816100e4565b92915050565b5f60208284031215610123576101226100e0565b5b5f610130848285016100fa565b91505092915050565b5f819050919050565b61014b81610139565b82525050565b5f6020820190506101645f830184610142565b9291505056fea264697066735822122015fcd741814b32216440748c1dd0998f57562f1819c0b16147e4bdbc372d1d3a64736f6c634300081c0033",
			"opcodes": "PUSH1 0x80 PUSH1 0x40 MSTORE PUSH2 0x7EA PUSH0 SSTORE PUSH32 0xFFFFFFFFFFFFFFFFFFFFFFFFFFFFFFFFFFFFFFFFFFFFFFFFFFFFFFFFFFFFFF00 PUSH1 0x1 SSTORE CALLVALUE DUP1 ISZERO PUSH1 0x37 JUMPI PUSH0 PUSH0 REVERT JUMPDEST POP PUSH2 0x1A0 DUP1 PUSH2 0x45 PUSH0 CODECOPY PUSH0 RETURN INVALID PUSH1 0x80 PUSH1 0x40 MSTORE CALLVALUE DUP1 ISZERO PUSH2 0xF JUMPI PUSH0 PUSH0 REVERT JUMPDEST POP PUSH1 0x4 CALLDATASIZE LT PUSH2 0x3F JUMPI PUSH0 CALLDATALOAD PUSH1 0xE0 SHR DUP1 PUSH4 0xB5A006B EQ PUSH2 0x43 JUMPI DUP1 PUSH4 0x8BB5D9C3 EQ PUSH2 0x61 JUMPI DUP1 PUSH4 0xDF986725 EQ PUSH2 0x7D JUMPI JUMPDEST PUSH0 PUSH0 REVERT JUMPDEST PUSH2 0x4B PUSH2 0x9B JUMP JUMPDEST PUSH1 0x40 MLOAD PUSH2 0x58 SWAP2 SWAP1 PUSH2 0xC7 JUMP JUMPDEST PUSH1 0x40 MLOAD DUP1 SWAP2 SUB SWAP1 RETURN JUMPDEST PUSH2 0x7B PUSH1 0x4 DUP1 CALLDATASIZE SUB DUP2 ADD SWAP1 PUSH2 0x76 SWAP2 SWAP1 PUSH2 0x10E JUMP JUMPDEST PUSH2 0xA0 JUMP JUMPDEST STOP JUMPDEST PUSH2 0x85 PUSH2 0xA9 JUMP JUMPDEST PUSH1 0x40 MLOAD PUSH2 0x92 SWAP2 SWAP1 PUSH2 0x151 JUMP JUMPDEST PUSH1 0x40 MLOAD DUP1 SWAP2 SUB SWAP1 RETURN JUMPDEST PUSH0 SLOAD DUP2 JUMP JUMPDEST DUP1 PUSH0 DUP2 SWAP1 SSTORE POP POP JUMP JUMPDEST PUSH1 0x1 SLOAD DUP2 JUMP JUMPDEST PUSH0 DUP2 SWAP1 POP SWAP2 SWAP1 POP JUMP JUMPDEST PUSH2 0xC1 DUP2 PUSH2 0xAF JUMP JUMPDEST DUP3 MSTORE POP POP JUMP JUMPDEST PUSH0 PUSH1 0x20 DUP3 ADD SWAP1 POP PUSH2 0xDA PUSH0 DUP4 ADD DUP5 PUSH2 0xB8 JUMP JUMPDEST SWAP3 SWAP2 POP POP JUMP JUMPDEST PUSH0 PUSH0 REVERT JUMPDEST PUSH2 0xED DUP2 PUSH2 0xAF JUMP JUMPDEST DUP2 EQ PUSH2 0xF7 JUMPI PUSH0 PUSH0 REVERT JUMPDEST POP JUMP JUMPDEST PUSH0 DUP2 CALLDATALOAD SWAP1 POP PUSH2 0x108 DUP2 PUSH2 0xE4 JUMP JUMPDEST SWAP3 SWAP2 POP POP JUMP JUMPDEST PUSH0 PUSH1 0x20 DUP3 DUP5 SUB SLT ISZERO PUSH2 0x123 JUMPI PUSH2 0x122 PUSH2 0xE0 JUMP JUMPDEST JUMPDEST PUSH0 PUSH2 0x130 DUP5 DUP3 DUP6 ADD PUSH2 0xFA JUMP JUMPDEST SWAP2 POP POP SWAP3 SWAP2 POP POP JUMP JUMPDEST PUSH0 DUP2 SWAP1 POP SWAP2 SWAP1 POP JUMP JUMPDEST PUSH2 0x14B DUP2 PUSH2 0x139 JUMP JUMPDEST DUP3 MSTORE POP POP JUMP JUMPDEST PUSH0 PUSH1 0x20 DUP3 ADD SWAP1 POP PUSH2 0x164 PUSH0 DUP4 ADD DUP5 PUSH2 0x142 JUMP JUMPDEST SWAP3 SWAP2 POP POP JUMP INVALID LOG2 PUSH5 0x6970667358 0x22 SLT KECCAK256 ISZERO 0xFC 0xD7 COINBASE DUP2 0x4B ORIGIN 0x21 PUSH5 0x40748C1DD0 SWAP10 DUP16 JUMPI JUMP 0x2F XOR NOT 0xC0 0xB1 PUSH2 0x47E4 0xBD 0xBC CALLDATACOPY 0x2D SAR GASPRICE PUSH5 0x736F6C6343 STOP ADDMOD SHR STOP CALLER "
		},
		"gasEstimates": {
			"creation": {
				"codeDepositCost": "83200",
				"executionCost": "44338",
				"totalCost": "127538"
			},
			"external": {
				"currentYear()": "2402",
				"myFavNumber()": "2447",
				"setCounter(uint256)": "22514"
			}
		},
		"methodIdentifiers": {
			"currentYear()": "0b5a006b",
			"myFavNumber()": "df986725",
			"setCounter(uint256)": "8bb5d9c3"
		}
	},
	"abi": [
		{
			"inputs": [],
			"name": "currentYear",
			"outputs": [
				{
					"internalType": "uint256",
					"name": "",
					"type": "uint256"
				}
			],
			"stateMutability": "view",
			"type": "function"
		},
		{
			"inputs": [],
			"name": "myFavNumber",
			"outputs": [
				{
					"internalType": "int256",
					"name": "",
					"type": "int256"
				}
			],
			"stateMutability": "view",
			"type": "function"
		},
		{
			"inputs": [
				{
					"internalType": "uint256",
					"name": "_count",
					"type": "uint256"
				}
			],
			"name": "setCounter",
			"outputs": [],
			"stateMutability": "nonpayable",
			"type": "function"
		}
	]
}