{
	"data": {
		"bytecode": {
			"linkReferences": {},
			"object": "60806040526107ea5f557fffffffffffffffffffffffffffffffffffffffffffffffffffffffffffffff0060015564e8d4a510006002553480156040575f5ffd5b5061030c8061004e5f395ff3fe608060405234801561000f575f5ffd5b506004361061007b575f3560e01c80638bb5d9c3116100595780638bb5d9c3146100d9578063d09de08a146100f5578063d595c331146100ff578063df9867251461011b5761007b565b8063047fc9aa1461007f5780630b5a006b1461009d5780636c9c2faf146100bb575b5f5ffd5b610087610139565b60405161009491906101a0565b60405180910390f35b6100a561013f565b6040516100b291906101a0565b60405180910390f35b6100c3610144565b6040516100d091906101a0565b60405180910390f35b6100f360048036038101906100ee91906101e7565b61014d565b005b6100fd610156565b005b610119600480360381019061011491906101e7565b61016b565b005b610123610182565b604051610130919061022a565b60405180910390f35b60025481565b5f5481565b5f600254905090565b805f8190555050565b60015f546101649190610270565b5f81905550565b8060025461017991906102a3565b60028190555050565b60015481565b5f819050919050565b61019a81610188565b82525050565b5f6020820190506101b35f830184610191565b92915050565b5f5ffd5b6101c681610188565b81146101d0575f5ffd5b50565b5f813590506101e1816101bd565b92915050565b5f602082840312156101fc576101fb6101b9565b5b5f610209848285016101d3565b91505092915050565b5f819050919050565b61022481610212565b82525050565b5f60208201905061023d5f83018461021b565b92915050565b7f4e487b71000000000000000000000000000000000000000000000000000000005f52601160045260245ffd5b5f61027a82610188565b915061028583610188565b925082820190508082111561029d5761029c610243565b5b92915050565b5f6102ad82610188565b91506102b883610188565b92508282039050818111156102d0576102cf610243565b5b9291505056fea2646970667358221220236f39d6bdb2f830454d43635c6d18b6ab4d5980c868a948bc907d847c7d36ba64736f6c634300081f0033",
			"opcodes": "PUSH1 0x80 PUSH1 0x40 MSTORE PUSH2 0x7EA PUSH0 SSTORE PUSH32 0xFFFFFFFFFFFFFFFFFFFFFFFFFFFFFFFFFFFFFFFFFFFFFFFFFFFFFFFFFFFFFF00 PUSH1 0x1 SSTORE PUSH5 0xE8D4A51000 PUSH1 0x2 SSTORE CALLVALUE DUP1 ISZERO PUSH1 0x40 JUMPI PUSH0 PUSH0 REVERT JUMPDEST POP PUSH2 0x30C DUP1 PUSH2 0x4E PUSH0 CODECOPY PUSH0 RETURN INVALID PUSH1 0x80 PUSH1 0x40 MSTORE CALLVALUE DUP1 ISZERO PUSH2 0xF JUMPI PUSH0 PUSH0 REVERT JUMPDEST POP PUSH1 0x4 CALLDATASIZE LT PUSH2 0x7B JUMPI PUSH0 CALLDATALOAD PUSH1 0xE0 SHR DUP1 PUSH4 0x8BB5D9C3 GT PUSH2 0x59 JUMPI DUP1 PUSH4 0x8BB5D9C3 EQ PUSH2 0xD9 JUMPI DUP1 PUSH4 0xD09DE08A EQ PUSH2 0xF5 JUMPI DUP1 PUSH4 0xD595C331 EQ PUSH2 0xFF JUMPI DUP1 PUSH4 0xDF986725 EQ PUSH2 0x11B JUMPI PUSH2 0x7B JUMP JUMPDEST DUP1 PUSH4 0x47FC9AA EQ PUSH2 0x7F JUMPI DUP1 PUSH4 0xB5A006B EQ PUSH2 0x9D JUMPI DUP1 PUSH4 0x6C9C2FAF EQ PUSH2 0xBB JUMPI JUMPDEST PUSH0 PUSH0 REVERT JUMPDEST PUSH2 0x87 PUSH2 0x139 JUMP JUMPDEST PUSH1 0x40 MLOAD PUSH2 0x94 SWAP2 SWAP1 PUSH2 0x1A0 JUMP JUMPDEST PUSH1 0x40 MLOAD DUP1 SWAP2 SUB SWAP1 RETURN JUMPDEST PUSH2 0xA5 PUSH2 0x13F JUMP JUMPDEST PUSH1 0x40 MLOAD PUSH2 0xB2 SWAP2 SWAP1 PUSH2 0x1A0 JUMP JUMPDEST PUSH1 0x40 MLOAD DUP1 SWAP2 SUB SWAP1 RETURN JUMPDEST PUSH2 0xC3 PUSH2 0x144 JUMP JUMPDEST PUSH1 0x40 MLOAD PUSH2 0xD0 SWAP2 SWAP1 PUSH2 0x1A0 JUMP JUMPDEST PUSH1 0x40 MLOAD DUP1 SWAP2 SUB SWAP1 RETURN JUMPDEST PUSH2 0xF3 PUSH1 0x4 DUP1 CALLDATASIZE SUB DUP2 ADD SWAP1 PUSH2 0xEE SWAP2 SWAP1 PUSH2 0x1E7 JUMP JUMPDEST PUSH2 0x14D JUMP JUMPDEST STOP JUMPDEST PUSH2 0xFD PUSH2 0x156 JUMP JUMPDEST STOP JUMPDEST PUSH2 0x119 PUSH1 0x4 DUP1 CALLDATASIZE SUB DUP2 ADD SWAP1 PUSH2 0x114 SWAP2 SWAP1 PUSH2 0x1E7 JUMP JUMPDEST PUSH2 0x16B JUMP JUMPDEST STOP JUMPDEST PUSH2 0x123 PUSH2 0x182 JUMP JUMPDEST PUSH1 0x40 MLOAD PUSH2 0x130 SWAP2 SWAP1 PUSH2 0x22A JUMP JUMPDEST PUSH1 0x40 MLOAD DUP1 SWAP2 SUB SWAP1 RETURN JUMPDEST PUSH1 0x2 SLOAD DUP2 JUMP JUMPDEST PUSH0 SLOAD DUP2 JUMP JUMPDEST PUSH0 PUSH1 0x2 SLOAD SWAP1 POP SWAP1 JUMP JUMPDEST DUP1 PUSH0 DUP2 SWAP1 SSTORE POP POP JUMP JUMPDEST PUSH1 0x1 PUSH0 SLOAD PUSH2 0x164 SWAP2 SWAP1 PUSH2 0x270 JUMP JUMPDEST PUSH0 DUP2 SWAP1 SSTORE POP JUMP JUMPDEST DUP1 PUSH1 0x2 SLOAD PUSH2 0x179 SWAP2 SWAP1 PUSH2 0x2A3 JUMP JUMPDEST PUSH1 0x2 DUP2 SWAP1 SSTORE POP POP JUMP JUMPDEST PUSH1 0x1 SLOAD DUP2 JUMP JUMPDEST PUSH0 DUP2 SWAP1 POP SWAP2 SWAP1 POP JUMP JUMPDEST PUSH2 0x19A DUP2 PUSH2 0x188 JUMP JUMPDEST DUP3 MSTORE POP POP JUMP JUMPDEST PUSH0 PUSH1 0x20 DUP3 ADD SWAP1 POP PUSH2 0x1B3 PUSH0 DUP4 ADD DUP5 PUSH2 0x191 JUMP JUMPDEST SWAP3 SWAP2 POP POP JUMP JUMPDEST PUSH0 PUSH0 REVERT JUMPDEST PUSH2 0x1C6 DUP2 PUSH2 0x188 JUMP JUMPDEST DUP2 EQ PUSH2 0x1D0 JUMPI PUSH0 PUSH0 REVERT JUMPDEST POP JUMP JUMPDEST PUSH0 DUP2 CALLDATALOAD SWAP1 POP PUSH2 0x1E1 DUP2 PUSH2 0x1BD JUMP JUMPDEST SWAP3 SWAP2 POP POP JUMP JUMPDEST PUSH0 PUSH1 0x20 DUP3 DUP5 SUB SLT ISZERO PUSH2 0x1FC JUMPI PUSH2 0x1FB PUSH2 0x1B9 JUMP JUMPDEST JUMPDEST PUSH0 PUSH2 0x209 DUP5 DUP3 DUP6 ADD PUSH2 0x1D3 JUMP JUMPDEST SWAP2 POP POP SWAP3 SWAP2 POP POP JUMP JUMPDEST PUSH0 DUP2 SWAP1 POP SWAP2 SWAP1 POP JUMP JUMPDEST PUSH2 0x224 DUP2 PUSH2 0x212 JUMP JUMPDEST DUP3 MSTORE POP POP JUMP JUMPDEST PUSH0 PUSH1 0x20 DUP3 ADD SWAP1 POP PUSH2 0x23D PUSH0 DUP4 ADD DUP5 PUSH2 0x21B JUMP JUMPDEST SWAP3 SWAP2 POP POP JUMP JUMPDEST PUSH32 0x4E487B7100000000000000000000000000000000000000000000000000000000 PUSH0 MSTORE PUSH1 0x11 PUSH1 0x4 MSTORE PUSH1 0x24 PUSH0 REVERT JUMPDEST PUSH0 PUSH2 0x27A DUP3 PUSH2 0x188 JUMP JUMPDEST SWAP2 POP PUSH2 0x285 DUP4 PUSH2 0x188 JUMP JUMPDEST SWAP3 POP DUP3 DUP3 ADD SWAP1 POP DUP1 DUP3 GT ISZERO PUSH2 0x29D JUMPI PUSH2 0x29C PUSH2 0x243 JUMP JUMPDEST JUMPDEST SWAP3 SWAP2 POP POP JUMP JUMPDEST PUSH0 PUSH2 0x2AD DUP3 PUSH2 0x188 JUMP JUMPDEST SWAP2 POP PUSH2 0x2B8 DUP4 PUSH2 0x188 JUMP JUMPDEST SWAP3 POP DUP3 DUP3 SUB SWAP1 POP DUP2 DUP2 GT ISZERO PUSH2 0x2D0 JUMPI PUSH2 0x2CF PUSH2 0x243 JUMP JUMPDEST JUMPDEST SWAP3 SWAP2 POP POP JUMP INVALID LOG2 PUSH5 0x6970667358 0x22 SLT KECCAK256 0x23 PUSH16 0x39D6BDB2F830454D43635C6D18B6AB4D MSIZE DUP1 0xC8 PUSH9 0xA948BC907D847C7D36 0xBA PUSH5 0x736F6C6343 STOP ADDMOD 0x1F STOP CALLER "
		},
		"gasEstimates": {
			"creation": {
				"codeDepositCost": "156000",
				"executionCost": "66517",
				"totalCost": "222517"
			},
			"external": {
				"burnSupply(uint256)": "infinite",
				"currentYear()": "2447",
				"getSupply()": "2477",
				"increment()": "infinite",
				"myFavNumber()": "2491",
				"setCounter(uint256)": "22514",
				"supply()": "2426"
			}
		},
		"methodIdentifiers": {
			"burnSupply(uint256)": "d595c331",
			"currentYear()": "0b5a006b",
			"getSupply()": "6c9c2faf",
			"increment()": "d09de08a",
			"myFavNumber()": "df986725",
			"setCounter(uint256)": "8bb5d9c3",
			"supply()": "047fc9aa"
		}
	},
	"abi": [
		{
			"inputs": [
				{
					"internalType": "uint256",
					"name": "burnTokenCount",
					"type": "uint256"
				}
			],
			"name": "burnSupply",
			"outputs": [],
			"stateMutability": "nonpayable",
			"type": "function"
		},
		{
			"inputs": [],
			"name": "currentYear",
			"outputs": [
				{
					"internalType": "uint256",
					"name": "",
					"type": "uint256"
				}
			],
			"stateMutability": "view",
			"type": "function"
		},
		{
			"inputs": [],
			"name": "getSupply",
			"outputs": [
				{
					"internalType": "uint256",
					"name": "",
					"type": "uint256"
				}
			],
			"stateMutability": "view",
			"type": "function"
		},
		{
			"inputs": [],
			"name": "increment",
			"outputs": [],
			"stateMutability": "nonpayable",
			"type": "function"
		},
		{
			"inputs": [],
			"name": "myFavNumber",
			"outputs": [
				{
					"internalType": "int256",
					"name": "",
					"type": "int256"
				}
			],
			"stateMutability": "view",
			"type": "function"
		},
		{
			"inputs": [
				{
					"internalType": "uint256",
					"name": "_count",
					"type": "uint256"
				}
			],
			"name": "setCounter",
			"outputs": [],
			"stateMutability": "nonpayable",
			"type": "function"
		},
		{
			"inputs": [],
			"name": "supply",
			"outputs": [
				{
					"internalType": "uint256",
					"name": "",
					"type": "uint256"
				}
			],
			"stateMutability": "view",
			"type": "function"
		}
	]
}